{
  "contractName": "BorrowerContract",
  "abi": [
    {
      "inputs": [
        {
          "internalType": "uint256",
          "name": "",
          "type": "uint256"
        }
      ],
      "name": "contracts",
      "outputs": [
        {
          "internalType": "uint256",
          "name": "id",
          "type": "uint256"
        },
        {
          "internalType": "uint256",
          "name": "borrowerId",
          "type": "uint256"
        },
        {
          "internalType": "address",
          "name": "borrower",
          "type": "address"
        },
        {
          "internalType": "uint256",
          "name": "loanAmount",
          "type": "uint256"
        },
        {
          "internalType": "uint256",
          "name": "interestRate",
          "type": "uint256"
        },
        {
          "internalType": "uint256",
          "name": "startDate",
          "type": "uint256"
        },
        {
          "internalType": "uint256",
          "name": "endDate",
          "type": "uint256"
        },
        {
          "internalType": "bytes32",
          "name": "blockHash",
          "type": "bytes32"
        },
        {
          "internalType": "uint256",
          "name": "blockNumber",
          "type": "uint256"
        }
      ],
      "stateMutability": "view",
      "type": "function",
      "constant": true
    },
    {
      "inputs": [
        {
          "internalType": "uint256",
          "name": "_borrowerId",
          "type": "uint256"
        },
        {
          "internalType": "uint256",
          "name": "_loanAmount",
          "type": "uint256"
        },
        {
          "internalType": "uint256",
          "name": "_interestRate",
          "type": "uint256"
        },
        {
          "internalType": "uint256",
          "name": "_startDate",
          "type": "uint256"
        }
      ],
      "name": "createContract",
      "outputs": [],
      "stateMutability": "nonpayable",
      "type": "function"
    },
    {
      "inputs": [
        {
          "internalType": "uint256",
          "name": "_borrowerId",
          "type": "uint256"
        }
      ],
      "name": "listAllContractsForBorrowerId",
      "outputs": [
        {
          "components": [
            {
              "internalType": "uint256",
              "name": "id",
              "type": "uint256"
            },
            {
              "internalType": "uint256",
              "name": "borrowerId",
              "type": "uint256"
            },
            {
              "internalType": "address",
              "name": "borrower",
              "type": "address"
            },
            {
              "internalType": "uint256",
              "name": "loanAmount",
              "type": "uint256"
            },
            {
              "internalType": "uint256",
              "name": "interestRate",
              "type": "uint256"
            },
            {
              "internalType": "uint256",
              "name": "startDate",
              "type": "uint256"
            },
            {
              "internalType": "uint256",
              "name": "endDate",
              "type": "uint256"
            },
            {
              "internalType": "bytes32",
              "name": "blockHash",
              "type": "bytes32"
            },
            {
              "internalType": "uint256",
              "name": "blockNumber",
              "type": "uint256"
            }
          ],
          "internalType": "struct BorrowerContract.Contract[]",
          "name": "",
          "type": "tuple[]"
        }
      ],
      "stateMutability": "view",
      "type": "function",
      "constant": true
    },
    {
      "inputs": [],
      "name": "getAllContracts",
      "outputs": [
        {
          "components": [
            {
              "internalType": "uint256",
              "name": "id",
              "type": "uint256"
            },
            {
              "internalType": "uint256",
              "name": "borrowerId",
              "type": "uint256"
            },
            {
              "internalType": "address",
              "name": "borrower",
              "type": "address"
            },
            {
              "internalType": "uint256",
              "name": "loanAmount",
              "type": "uint256"
            },
            {
              "internalType": "uint256",
              "name": "interestRate",
              "type": "uint256"
            },
            {
              "internalType": "uint256",
              "name": "startDate",
              "type": "uint256"
            },
            {
              "internalType": "uint256",
              "name": "endDate",
              "type": "uint256"
            },
            {
              "internalType": "bytes32",
              "name": "blockHash",
              "type": "bytes32"
            },
            {
              "internalType": "uint256",
              "name": "blockNumber",
              "type": "uint256"
            }
          ],
          "internalType": "struct BorrowerContract.Contract[]",
          "name": "",
          "type": "tuple[]"
        }
      ],
      "stateMutability": "view",
      "type": "function",
      "constant": true
    }
  ],
  "bytecode": "0x608060405234801561001057600080fd5b50610cdf806100206000396000f3fe608060405234801561001057600080fd5b506004361061004c5760003560e01c806318d3ce961461005157806338aa5a881461006f578063474da79a1461008b5780639e1a4c7e146100c3575b600080fd5b6100596100f3565b6040516100669190610a62565b60405180910390f35b61008960048036038101906100849190610877565b6101f9565b005b6100a560048036038101906100a0919061084e565b61034c565b6040516100ba99989796959493929190610a84565b60405180910390f35b6100dd60048036038101906100d8919061084e565b6103ca565b6040516100ea9190610a62565b60405180910390f35b60606000805480602002602001604051908101604052809291908181526020016000905b828210156101f057838290600052602060002090600902016040518061012001604052908160008201548152602001600182015481526020016002820160009054906101000a900473ffffffffffffffffffffffffffffffffffffffff1673ffffffffffffffffffffffffffffffffffffffff1673ffffffffffffffffffffffffffffffffffffffff168152602001600382015481526020016004820154815260200160058201548152602001600682015481526020016007820154815260200160088201548152505081526020019060010190610117565b50505050905090565b600062278d008261020a9190610b4a565b9050600060014361021b9190610ba0565b4090506000439050600060405180610120016040528060008054905081526020018981526020013373ffffffffffffffffffffffffffffffffffffffff168152602001888152602001878152602001868152602001858152602001848152602001838152509080600181540180825580915050600190039060005260206000209060090201600090919091909150600082015181600001556020820151816001015560408201518160020160006101000a81548173ffffffffffffffffffffffffffffffffffffffff021916908373ffffffffffffffffffffffffffffffffffffffff160217905550606082015181600301556080820151816004015560a0820151816005015560c0820151816006015560e082015181600701556101008201518160080155505050505050505050565b6000818154811061035c57600080fd5b90600052602060002090600902016000915090508060000154908060010154908060020160009054906101000a900473ffffffffffffffffffffffffffffffffffffffff16908060030154908060040154908060050154908060060154908060070154908060080154905089565b606060006103d783610600565b90506000815167ffffffffffffffff81111561041c577f4e487b7100000000000000000000000000000000000000000000000000000000600052604160045260246000fd5b60405190808252806020026020018201604052801561045557816020015b6104426107d4565b81526020019060019003908161043a5790505b50905060005b82518110156105f557600083828151811061049f577f4e487b7100000000000000000000000000000000000000000000000000000000600052603260045260246000fd5b6020026020010151815481106104de577f4e487b7100000000000000000000000000000000000000000000000000000000600052603260045260246000fd5b90600052602060002090600902016040518061012001604052908160008201548152602001600182015481526020016002820160009054906101000a900473ffffffffffffffffffffffffffffffffffffffff1673ffffffffffffffffffffffffffffffffffffffff1673ffffffffffffffffffffffffffffffffffffffff16815260200160038201548152602001600482015481526020016005820154815260200160068201548152602001600782015481526020016008820154815250508282815181106105d7577f4e487b7100000000000000000000000000000000000000000000000000000000600052603260045260246000fd5b602002602001018190525080806105ed90610c1a565b91505061045b565b508092505050919050565b60606000805b60008054905081101561068857836000828154811061064e577f4e487b7100000000000000000000000000000000000000000000000000000000600052603260045260246000fd5b906000526020600020906009020160010154141561067557818061067190610c1a565b9250505b808061068090610c1a565b915050610606565b5060008167ffffffffffffffff8111156106cb577f4e487b7100000000000000000000000000000000000000000000000000000000600052604160045260246000fd5b6040519080825280602002602001820160405280156106f95781602001602082028036833780820191505090505b5090506000805b6000805490508110156107c8578560008281548110610748577f4e487b7100000000000000000000000000000000000000000000000000000000600052603260045260246000fd5b90600052602060002090600902016001015414156107b5578083838151811061079a577f4e487b7100000000000000000000000000000000000000000000000000000000600052603260045260246000fd5b60200260200101818152505081806107b190610c1a565b9250505b80806107c090610c1a565b915050610700565b50819350505050919050565b6040518061012001604052806000815260200160008152602001600073ffffffffffffffffffffffffffffffffffffffff1681526020016000815260200160008152602001600081526020016000815260200160008019168152602001600081525090565b60008135905061084881610c92565b92915050565b60006020828403121561086057600080fd5b600061086e84828501610839565b91505092915050565b6000806000806080858703121561088d57600080fd5b600061089b87828801610839565b94505060206108ac87828801610839565b93505060406108bd87828801610839565b92505060606108ce87828801610839565b91505092959194509250565b60006108e6838361098d565b6101208301905092915050565b6108fc81610bd4565b82525050565b61090b81610bd4565b82525050565b600061091c82610b21565b6109268185610b39565b935061093183610b11565b8060005b8381101561096257815161094988826108da565b975061095483610b2c565b925050600181019050610935565b5085935050505092915050565b61097881610be6565b82525050565b61098781610be6565b82525050565b610120820160008201516109a46000850182610a44565b5060208201516109b76020850182610a44565b5060408201516109ca60408501826108f3565b5060608201516109dd6060850182610a44565b5060808201516109f06080850182610a44565b5060a0820151610a0360a0850182610a44565b5060c0820151610a1660c0850182610a44565b5060e0820151610a2960e085018261096f565b50610100820151610a3e610100850182610a44565b50505050565b610a4d81610c10565b82525050565b610a5c81610c10565b82525050565b60006020820190508181036000830152610a7c8184610911565b905092915050565b600061012082019050610a9a600083018c610a53565b610aa7602083018b610a53565b610ab4604083018a610902565b610ac16060830189610a53565b610ace6080830188610a53565b610adb60a0830187610a53565b610ae860c0830186610a53565b610af560e083018561097e565b610b03610100830184610a53565b9a9950505050505050505050565b6000819050602082019050919050565b600081519050919050565b6000602082019050919050565b600082825260208201905092915050565b6000610b5582610c10565b9150610b6083610c10565b9250827fffffffffffffffffffffffffffffffffffffffffffffffffffffffffffffffff03821115610b9557610b94610c63565b5b828201905092915050565b6000610bab82610c10565b9150610bb683610c10565b925082821015610bc957610bc8610c63565b5b828203905092915050565b6000610bdf82610bf0565b9050919050565b6000819050919050565b600073ffffffffffffffffffffffffffffffffffffffff82169050919050565b6000819050919050565b6000610c2582610c10565b91507fffffffffffffffffffffffffffffffffffffffffffffffffffffffffffffffff821415610c5857610c57610c63565b5b600182019050919050565b7f4e487b7100000000000000000000000000000000000000000000000000000000600052601160045260246000fd5b610c9b81610c10565b8114610ca657600080fd5b5056fea26469706673582212208612c7c954354405b519313f8aa5b70da75ecb40ef1ca822f4b70f2dfdbb00e664736f6c63430008000033",
  "immutableReferences": {},
  "source": "// SPDX-License-Identifier: MIT\r\npragma solidity ^0.8.0;\r\n\r\ncontract BorrowerContract {\r\n    struct Contract {\r\n        uint256 id;\r\n        uint256 borrowerId;\r\n        address borrower;\r\n        uint256 loanAmount;\r\n        uint256 interestRate;\r\n        uint256 startDate;\r\n        uint256 endDate;\r\n        bytes32 blockHash;\r\n        uint256 blockNumber;\r\n    }\r\n\r\n    Contract[] public contracts;\r\n\r\n    modifier contractExists(uint _id) {\r\n        require(_id < contracts.length, \"Contract ID is out of bounds.\");\r\n        _;\r\n    }\r\n\r\n    function createContract(uint _borrowerId, uint _loanAmount, uint _interestRate, uint _startDate) public {\r\n        uint _endDate = _startDate + 30 days;\r\n        bytes32 hashOfPreviousBlock = blockhash(block.number - 1);\r\n        uint256 currentBlockNumber = block.number;\r\n        contracts.push(Contract(contracts.length, _borrowerId, msg.sender, _loanAmount, _interestRate, _startDate, _endDate, hashOfPreviousBlock, currentBlockNumber));\r\n    }\r\n\r\n    function listAllContractsForBorrowerId(uint256 _borrowerId) public view returns (Contract[] memory) {\r\n        uint256[] memory contractIndices = listUserContracts(_borrowerId);\r\n        Contract[] memory detailedContracts = new Contract[](contractIndices.length);\r\n\r\n        for (uint256 i = 0; i < contractIndices.length; i++) {\r\n            detailedContracts[i] = contracts[contractIndices[i]];\r\n        }\r\n        return detailedContracts;\r\n    }\r\n\r\n    function listUserContracts(uint256 _borrowerId) internal view returns (uint256[] memory) {\r\n        uint256 contractCount = 0;\r\n        for (uint256 i = 0; i < contracts.length; i++) {\r\n            if (contracts[i].borrowerId == _borrowerId) {\r\n                contractCount++;\r\n            }\r\n        }\r\n\r\n        uint256[] memory contractIndices = new uint256[](contractCount);\r\n        uint256 currentIndex = 0;\r\n        for (uint256 i = 0; i < contracts.length; i++) {\r\n            if (contracts[i].borrowerId == _borrowerId) {\r\n                contractIndices[currentIndex] = i;\r\n                currentIndex++;\r\n            }\r\n        }\r\n        return contractIndices;\r\n    }\r\n\r\n    // Method to list all contracts in the system\r\n    function getAllContracts() public view returns (Contract[] memory) {\r\n        return contracts;\r\n    }\r\n}\r\n",
  "sourcePath": "C:\\Users\\User\\OneDrive - Asia Pacific University\\APU\\FYP + IR\\06 Final Year Project\\Sky-P2P\\backend\\contracts\\BorrowerContract.sol",
  "compiler": {
    "name": "solc",
    "version": "0.8.0+commit.c7dfd78e.Emscripten.clang"
  },
  "schemaVersion": "3.4.16",
  "updatedAt": "2024-01-02T13:07:55.000Z",
  "networkType": "ethereum",
  "devdoc": {
    "kind": "dev",
    "methods": {},
    "version": 1
  },
  "userdoc": {
    "kind": "user",
    "methods": {},
    "version": 1
  }
}