{
  "contractName": "BorrowerContract",
  "abi": [
    {
      "inputs": [
        {
          "internalType": "uint256",
          "name": "",
          "type": "uint256"
        }
      ],
      "name": "contracts",
      "outputs": [
        {
          "internalType": "uint256",
          "name": "id",
          "type": "uint256"
        },
        {
          "internalType": "uint256",
          "name": "borrowerId",
          "type": "uint256"
        },
        {
          "internalType": "address",
          "name": "borrower",
          "type": "address"
        },
        {
          "internalType": "uint256",
          "name": "loanAmount",
          "type": "uint256"
        },
        {
          "internalType": "uint256",
          "name": "interestRate",
          "type": "uint256"
        },
        {
          "internalType": "uint256",
          "name": "startDate",
          "type": "uint256"
        },
        {
          "internalType": "uint256",
          "name": "endDate",
          "type": "uint256"
        },
        {
          "internalType": "bytes32",
          "name": "blockHash",
          "type": "bytes32"
        }
      ],
      "stateMutability": "view",
      "type": "function",
      "constant": true
    },
    {
      "inputs": [
        {
          "internalType": "uint256",
          "name": "_borrowerId",
          "type": "uint256"
        },
        {
          "internalType": "uint256",
          "name": "_loanAmount",
          "type": "uint256"
        },
        {
          "internalType": "uint256",
          "name": "_interestRate",
          "type": "uint256"
        },
        {
          "internalType": "uint256",
          "name": "_startDate",
          "type": "uint256"
        }
      ],
      "name": "createContract",
      "outputs": [],
      "stateMutability": "nonpayable",
      "type": "function"
    },
    {
      "inputs": [
        {
          "internalType": "uint256",
          "name": "_borrowerId",
          "type": "uint256"
        }
      ],
      "name": "listAllContractsForBorrowerId",
      "outputs": [
        {
          "components": [
            {
              "internalType": "uint256",
              "name": "id",
              "type": "uint256"
            },
            {
              "internalType": "uint256",
              "name": "borrowerId",
              "type": "uint256"
            },
            {
              "internalType": "address",
              "name": "borrower",
              "type": "address"
            },
            {
              "internalType": "uint256",
              "name": "loanAmount",
              "type": "uint256"
            },
            {
              "internalType": "uint256",
              "name": "interestRate",
              "type": "uint256"
            },
            {
              "internalType": "uint256",
              "name": "startDate",
              "type": "uint256"
            },
            {
              "internalType": "uint256",
              "name": "endDate",
              "type": "uint256"
            },
            {
              "internalType": "bytes32",
              "name": "blockHash",
              "type": "bytes32"
            }
          ],
          "internalType": "struct BorrowerContract.Contract[]",
          "name": "",
          "type": "tuple[]"
        }
      ],
      "stateMutability": "view",
      "type": "function",
      "constant": true
    },
    {
      "inputs": [],
      "name": "getAllContracts",
      "outputs": [
        {
          "components": [
            {
              "internalType": "uint256",
              "name": "id",
              "type": "uint256"
            },
            {
              "internalType": "uint256",
              "name": "borrowerId",
              "type": "uint256"
            },
            {
              "internalType": "address",
              "name": "borrower",
              "type": "address"
            },
            {
              "internalType": "uint256",
              "name": "loanAmount",
              "type": "uint256"
            },
            {
              "internalType": "uint256",
              "name": "interestRate",
              "type": "uint256"
            },
            {
              "internalType": "uint256",
              "name": "startDate",
              "type": "uint256"
            },
            {
              "internalType": "uint256",
              "name": "endDate",
              "type": "uint256"
            },
            {
              "internalType": "bytes32",
              "name": "blockHash",
              "type": "bytes32"
            }
          ],
          "internalType": "struct BorrowerContract.Contract[]",
          "name": "",
          "type": "tuple[]"
        }
      ],
      "stateMutability": "view",
      "type": "function",
      "constant": true
    }
  ],
  "bytecode": "0x608060405234801561001057600080fd5b50610c82806100206000396000f3fe608060405234801561001057600080fd5b506004361061004c5760003560e01c806318d3ce961461005157806338aa5a881461006f578063474da79a1461008b5780639e1a4c7e146100c2575b600080fd5b6100596100f2565b6040516100669190610a14565b60405180910390f35b6100896004803603810190610084919061083e565b6101ee565b005b6100a560048036038101906100a09190610815565b61032a565b6040516100b9989796959493929190610a36565b60405180910390f35b6100dc60048036038101906100d79190610815565b6103a2565b6040516100e99190610a14565b60405180910390f35b60606000805480602002602001604051908101604052809291908181526020016000905b828210156101e557838290600052602060002090600802016040518061010001604052908160008201548152602001600182015481526020016002820160009054906101000a900473ffffffffffffffffffffffffffffffffffffffff1673ffffffffffffffffffffffffffffffffffffffff1673ffffffffffffffffffffffffffffffffffffffff1681526020016003820154815260200160048201548152602001600582015481526020016006820154815260200160078201548152505081526020019060010190610116565b50505050905090565b600062278d00826101ff9190610aed565b905060006001436102109190610b43565b409050600060405180610100016040528060008054905081526020018881526020013373ffffffffffffffffffffffffffffffffffffffff168152602001878152602001868152602001858152602001848152602001838152509080600181540180825580915050600190039060005260206000209060080201600090919091909150600082015181600001556020820151816001015560408201518160020160006101000a81548173ffffffffffffffffffffffffffffffffffffffff021916908373ffffffffffffffffffffffffffffffffffffffff160217905550606082015181600301556080820151816004015560a0820151816005015560c0820151816006015560e082015181600701555050505050505050565b6000818154811061033a57600080fd5b90600052602060002090600802016000915090508060000154908060010154908060020160009054906101000a900473ffffffffffffffffffffffffffffffffffffffff16908060030154908060040154908060050154908060060154908060070154905088565b606060006103af836105ce565b90506000815167ffffffffffffffff8111156103f4577f4e487b7100000000000000000000000000000000000000000000000000000000600052604160045260246000fd5b60405190808252806020026020018201604052801561042d57816020015b61041a6107a2565b8152602001906001900390816104125790505b50905060005b82518110156105c3576000838281518110610477577f4e487b7100000000000000000000000000000000000000000000000000000000600052603260045260246000fd5b6020026020010151815481106104b6577f4e487b7100000000000000000000000000000000000000000000000000000000600052603260045260246000fd5b90600052602060002090600802016040518061010001604052908160008201548152602001600182015481526020016002820160009054906101000a900473ffffffffffffffffffffffffffffffffffffffff1673ffffffffffffffffffffffffffffffffffffffff1673ffffffffffffffffffffffffffffffffffffffff168152602001600382015481526020016004820154815260200160058201548152602001600682015481526020016007820154815250508282815181106105a5577f4e487b7100000000000000000000000000000000000000000000000000000000600052603260045260246000fd5b602002602001018190525080806105bb90610bbd565b915050610433565b508092505050919050565b60606000805b60008054905081101561065657836000828154811061061c577f4e487b7100000000000000000000000000000000000000000000000000000000600052603260045260246000fd5b906000526020600020906008020160010154141561064357818061063f90610bbd565b9250505b808061064e90610bbd565b9150506105d4565b5060008167ffffffffffffffff811115610699577f4e487b7100000000000000000000000000000000000000000000000000000000600052604160045260246000fd5b6040519080825280602002602001820160405280156106c75781602001602082028036833780820191505090505b5090506000805b600080549050811015610796578560008281548110610716577f4e487b7100000000000000000000000000000000000000000000000000000000600052603260045260246000fd5b90600052602060002090600802016001015414156107835780838381518110610768577f4e487b7100000000000000000000000000000000000000000000000000000000600052603260045260246000fd5b602002602001018181525050818061077f90610bbd565b9250505b808061078e90610bbd565b9150506106ce565b50819350505050919050565b6040518061010001604052806000815260200160008152602001600073ffffffffffffffffffffffffffffffffffffffff16815260200160008152602001600081526020016000815260200160008152602001600080191681525090565b60008135905061080f81610c35565b92915050565b60006020828403121561082757600080fd5b600061083584828501610800565b91505092915050565b6000806000806080858703121561085457600080fd5b600061086287828801610800565b945050602061087387828801610800565b935050604061088487828801610800565b925050606061089587828801610800565b91505092959194509250565b60006108ad8383610954565b6101008301905092915050565b6108c381610b77565b82525050565b6108d281610b77565b82525050565b60006108e382610ac4565b6108ed8185610adc565b93506108f883610ab4565b8060005b8381101561092957815161091088826108a1565b975061091b83610acf565b9250506001810190506108fc565b5085935050505092915050565b61093f81610b89565b82525050565b61094e81610b89565b82525050565b6101008201600082015161096b60008501826109f6565b50602082015161097e60208501826109f6565b50604082015161099160408501826108ba565b5060608201516109a460608501826109f6565b5060808201516109b760808501826109f6565b5060a08201516109ca60a08501826109f6565b5060c08201516109dd60c08501826109f6565b5060e08201516109f060e0850182610936565b50505050565b6109ff81610bb3565b82525050565b610a0e81610bb3565b82525050565b60006020820190508181036000830152610a2e81846108d8565b905092915050565b600061010082019050610a4c600083018b610a05565b610a59602083018a610a05565b610a6660408301896108c9565b610a736060830188610a05565b610a806080830187610a05565b610a8d60a0830186610a05565b610a9a60c0830185610a05565b610aa760e0830184610945565b9998505050505050505050565b6000819050602082019050919050565b600081519050919050565b6000602082019050919050565b600082825260208201905092915050565b6000610af882610bb3565b9150610b0383610bb3565b9250827fffffffffffffffffffffffffffffffffffffffffffffffffffffffffffffffff03821115610b3857610b37610c06565b5b828201905092915050565b6000610b4e82610bb3565b9150610b5983610bb3565b925082821015610b6c57610b6b610c06565b5b828203905092915050565b6000610b8282610b93565b9050919050565b6000819050919050565b600073ffffffffffffffffffffffffffffffffffffffff82169050919050565b6000819050919050565b6000610bc882610bb3565b91507fffffffffffffffffffffffffffffffffffffffffffffffffffffffffffffffff821415610bfb57610bfa610c06565b5b600182019050919050565b7f4e487b7100000000000000000000000000000000000000000000000000000000600052601160045260246000fd5b610c3e81610bb3565b8114610c4957600080fd5b5056fea2646970667358221220d7d8e9580ffc44b4c14b058c9c70eae26344ba548a5ce28f36a2d34635863d6664736f6c63430008000033",
  "immutableReferences": {},
  "source": "// SPDX-License-Identifier: MIT\r\npragma solidity ^0.8.0;\r\n\r\ncontract BorrowerContract {\r\n    struct Contract {\r\n        uint256 id;\r\n        uint256 borrowerId;\r\n        address borrower;\r\n        uint256 loanAmount;\r\n        uint256 interestRate;\r\n        uint256 startDate;\r\n        uint256 endDate;\r\n        bytes32 blockHash; // Added field for block hash\r\n    }\r\n\r\n\r\n    Contract[] public contracts;\r\n\r\n    modifier contractExists(uint _id) {\r\n        require(_id < contracts.length, \"Contract ID is out of bounds.\");\r\n        _;\r\n    }\r\n\r\n    function createContract(uint _borrowerId, uint _loanAmount, uint _interestRate, uint _startDate) public {\r\n        uint _endDate = _startDate + 30 days;\r\n        bytes32 hashOfRecentBlock = blockhash(block.number - 1);\r\n        contracts.push(Contract(contracts.length, _borrowerId, msg.sender, _loanAmount, _interestRate, _startDate, _endDate, hashOfRecentBlock));\r\n    }\r\n\r\n    function listAllContractsForBorrowerId(uint256 _borrowerId) public view returns (Contract[] memory) {\r\n        uint256[] memory contractIndices = listUserContracts(_borrowerId);\r\n        Contract[] memory detailedContracts = new Contract[](contractIndices.length);\r\n\r\n        for (uint256 i = 0; i < contractIndices.length; i++) {\r\n            detailedContracts[i] = contracts[contractIndices[i]];\r\n        }\r\n        return detailedContracts;\r\n    }\r\n\r\n    function listUserContracts(uint256 _borrowerId) internal view returns (uint256[] memory) {\r\n        uint256 contractCount = 0;\r\n        for (uint256 i = 0; i < contracts.length; i++) {\r\n            if (contracts[i].borrowerId == _borrowerId) {\r\n                contractCount++;\r\n            }\r\n        }\r\n\r\n        uint256[] memory contractIndices = new uint256[](contractCount);\r\n        uint256 currentIndex = 0;\r\n        for (uint256 i = 0; i < contracts.length; i++) {\r\n            if (contracts[i].borrowerId == _borrowerId) {\r\n                contractIndices[currentIndex] = i;\r\n                currentIndex++;\r\n            }\r\n        }\r\n        return contractIndices;\r\n    }\r\n\r\n    // Method to list all contracts in the system\r\n    function getAllContracts() public view returns (Contract[] memory) {\r\n        return contracts;\r\n    }\r\n}\r\n",
  "sourcePath": "C:\\Users\\User\\OneDrive - Asia Pacific University\\APU\\FYP + IR\\06 Final Year Project\\Sky-P2P\\backend\\contracts\\BorrowerContract.sol",
  "compiler": {
    "name": "solc",
    "version": "0.8.0+commit.c7dfd78e.Emscripten.clang"
  },
  "schemaVersion": "3.4.16",
  "updatedAt": "2023-12-25T09:55:17.165Z",
  "networkType": "ethereum",
  "devdoc": {
    "kind": "dev",
    "methods": {},
    "version": 1
  },
  "userdoc": {
    "kind": "user",
    "methods": {},
    "version": 1
  }
}