{
  "contractName": "BorrowerContract",
  "abi": [
    {
      "inputs": [
        {
          "internalType": "uint256",
          "name": "",
          "type": "uint256"
        }
      ],
      "name": "contracts",
      "outputs": [
        {
          "internalType": "uint256",
          "name": "id",
          "type": "uint256"
        },
        {
          "internalType": "uint256",
          "name": "borrowerId",
          "type": "uint256"
        },
        {
          "internalType": "address",
          "name": "borrower",
          "type": "address"
        },
        {
          "internalType": "uint256",
          "name": "loanAmount",
          "type": "uint256"
        },
        {
          "internalType": "uint256",
          "name": "interestRate",
          "type": "uint256"
        },
        {
          "internalType": "uint256",
          "name": "startDate",
          "type": "uint256"
        },
        {
          "internalType": "uint256",
          "name": "endDate",
          "type": "uint256"
        },
        {
          "internalType": "bool",
          "name": "isActive",
          "type": "bool"
        }
      ],
      "stateMutability": "view",
      "type": "function",
      "constant": true
    },
    {
      "inputs": [
        {
          "internalType": "uint256",
          "name": "_borrowerId",
          "type": "uint256"
        },
        {
          "internalType": "uint256",
          "name": "_loanAmount",
          "type": "uint256"
        },
        {
          "internalType": "uint256",
          "name": "_interestRate",
          "type": "uint256"
        },
        {
          "internalType": "uint256",
          "name": "_startDate",
          "type": "uint256"
        }
      ],
      "name": "createContract",
      "outputs": [],
      "stateMutability": "nonpayable",
      "type": "function"
    },
    {
      "inputs": [
        {
          "internalType": "uint256",
          "name": "_id",
          "type": "uint256"
        },
        {
          "internalType": "uint256",
          "name": "_loanAmount",
          "type": "uint256"
        },
        {
          "internalType": "uint256",
          "name": "_interestRate",
          "type": "uint256"
        }
      ],
      "name": "updateContract",
      "outputs": [],
      "stateMutability": "nonpayable",
      "type": "function"
    },
    {
      "inputs": [
        {
          "internalType": "address",
          "name": "_user",
          "type": "address"
        }
      ],
      "name": "listUserContracts",
      "outputs": [
        {
          "internalType": "uint256[]",
          "name": "",
          "type": "uint256[]"
        }
      ],
      "stateMutability": "view",
      "type": "function",
      "constant": true
    },
    {
      "inputs": [
        {
          "internalType": "uint256",
          "name": "_id",
          "type": "uint256"
        }
      ],
      "name": "getContractDetails",
      "outputs": [
        {
          "components": [
            {
              "internalType": "uint256",
              "name": "id",
              "type": "uint256"
            },
            {
              "internalType": "uint256",
              "name": "borrowerId",
              "type": "uint256"
            },
            {
              "internalType": "address",
              "name": "borrower",
              "type": "address"
            },
            {
              "internalType": "uint256",
              "name": "loanAmount",
              "type": "uint256"
            },
            {
              "internalType": "uint256",
              "name": "interestRate",
              "type": "uint256"
            },
            {
              "internalType": "uint256",
              "name": "startDate",
              "type": "uint256"
            },
            {
              "internalType": "uint256",
              "name": "endDate",
              "type": "uint256"
            },
            {
              "internalType": "bool",
              "name": "isActive",
              "type": "bool"
            }
          ],
          "internalType": "struct BorrowerContract.Contract",
          "name": "",
          "type": "tuple"
        }
      ],
      "stateMutability": "view",
      "type": "function",
      "constant": true
    },
    {
      "inputs": [
        {
          "internalType": "uint256",
          "name": "_id",
          "type": "uint256"
        }
      ],
      "name": "invalidateContract",
      "outputs": [],
      "stateMutability": "nonpayable",
      "type": "function"
    }
  ],
  "bytecode": "0x608060405234801561001057600080fd5b50610f82806100206000396000f3fe608060405234801561001057600080fd5b50600436106100625760003560e01c806338aa5a8814610067578063474da79a146100835780634d6d6a9c146100ba57806359a48e46146100ea5780635e90583314610106578063e535332014610122575b600080fd5b610081600480360381019061007c9190610a47565b610152565b005b61009d600480360381019061009891906109cf565b610294565b6040516100b1989796959493929190610d40565b60405180910390f35b6100d460048036038101906100cf91906109cf565b610319565b6040516100e19190610d24565b60405180910390f35b61010460048036038101906100ff91906109cf565b610472565b005b610120600480360381019061011b91906109f8565b6105fc565b005b61013c600480360381019061013791906109a6565b610783565b6040516101499190610cc2565b60405180910390f35b600062278d00826101639190610e08565b9050600060405180610100016040528060008054905081526020018781526020013373ffffffffffffffffffffffffffffffffffffffff168152602001868152602001858152602001848152602001838152602001600115158152509080600181540180825580915050600190039060005260206000209060080201600090919091909150600082015181600001556020820151816001015560408201518160020160006101000a81548173ffffffffffffffffffffffffffffffffffffffff021916908373ffffffffffffffffffffffffffffffffffffffff160217905550606082015181600301556080820151816004015560a0820151816005015560c0820151816006015560e08201518160070160006101000a81548160ff02191690831515021790555050505050505050565b600081815481106102a457600080fd5b90600052602060002090600802016000915090508060000154908060010154908060020160009054906101000a900473ffffffffffffffffffffffffffffffffffffffff16908060030154908060040154908060050154908060060154908060070160009054906101000a900460ff16905088565b61032161091f565b816000805490508110610369576040517f08c379a000000000000000000000000000000000000000000000000000000000815260040161036090610d04565b60405180910390fd5b600083815481106103a3577f4e487b7100000000000000000000000000000000000000000000000000000000600052603260045260246000fd5b90600052602060002090600802016040518061010001604052908160008201548152602001600182015481526020016002820160009054906101000a900473ffffffffffffffffffffffffffffffffffffffff1673ffffffffffffffffffffffffffffffffffffffff1673ffffffffffffffffffffffffffffffffffffffff168152602001600382015481526020016004820154815260200160058201548152602001600682015481526020016007820160009054906101000a900460ff161515151581525050915050919050565b8060008054905081106104ba576040517f08c379a00000000000000000000000000000000000000000000000000000000081526004016104b190610d04565b60405180910390fd5b81600081815481106104f5577f4e487b7100000000000000000000000000000000000000000000000000000000600052603260045260246000fd5b906000526020600020906008020160020160009054906101000a900473ffffffffffffffffffffffffffffffffffffffff1673ffffffffffffffffffffffffffffffffffffffff163373ffffffffffffffffffffffffffffffffffffffff1614610594576040517f08c379a000000000000000000000000000000000000000000000000000000000815260040161058b90610ce4565b60405180910390fd5b60008084815481106105cf577f4e487b7100000000000000000000000000000000000000000000000000000000600052603260045260246000fd5b906000526020600020906008020160070160006101000a81548160ff021916908315150217905550505050565b826000805490508110610644576040517f08c379a000000000000000000000000000000000000000000000000000000000815260040161063b90610d04565b60405180910390fd5b836000818154811061067f577f4e487b7100000000000000000000000000000000000000000000000000000000600052603260045260246000fd5b906000526020600020906008020160020160009054906101000a900473ffffffffffffffffffffffffffffffffffffffff1673ffffffffffffffffffffffffffffffffffffffff163373ffffffffffffffffffffffffffffffffffffffff161461071e576040517f08c379a000000000000000000000000000000000000000000000000000000000815260040161071590610ce4565b60405180910390fd5b6000808681548110610759577f4e487b7100000000000000000000000000000000000000000000000000000000600052603260045260246000fd5b90600052602060002090600802019050848160030181905550838160040181905550505050505050565b60606000808054905067ffffffffffffffff8111156107cb577f4e487b7100000000000000000000000000000000000000000000000000000000600052604160045260246000fd5b6040519080825280602002602001820160405280156107f95781602001602082028036833780820191505090505b5090506000805b600080549050811015610914578473ffffffffffffffffffffffffffffffffffffffff166000828154811061085e577f4e487b7100000000000000000000000000000000000000000000000000000000600052603260045260246000fd5b906000526020600020906008020160020160009054906101000a900473ffffffffffffffffffffffffffffffffffffffff1673ffffffffffffffffffffffffffffffffffffffff16141561090157808383815181106108e6577f4e487b7100000000000000000000000000000000000000000000000000000000600052603260045260246000fd5b60200260200101818152505081806108fd90610ea6565b9250505b808061090c90610ea6565b915050610800565b508192505050919050565b6040518061010001604052806000815260200160008152602001600073ffffffffffffffffffffffffffffffffffffffff168152602001600081526020016000815260200160008152602001600081526020016000151581525090565b60008135905061098b81610f1e565b92915050565b6000813590506109a081610f35565b92915050565b6000602082840312156109b857600080fd5b60006109c68482850161097c565b91505092915050565b6000602082840312156109e157600080fd5b60006109ef84828501610991565b91505092915050565b600080600060608486031215610a0d57600080fd5b6000610a1b86828701610991565b9350506020610a2c86828701610991565b9250506040610a3d86828701610991565b9150509250925092565b60008060008060808587031215610a5d57600080fd5b6000610a6b87828801610991565b9450506020610a7c87828801610991565b9350506040610a8d87828801610991565b9250506060610a9e87828801610991565b91505092959194509250565b6000610ab68383610ca4565b60208301905092915050565b610acb81610e5e565b82525050565b610ada81610e5e565b82525050565b6000610aeb82610dce565b610af58185610de6565b9350610b0083610dbe565b8060005b83811015610b31578151610b188882610aaa565b9750610b2383610dd9565b925050600181019050610b04565b5085935050505092915050565b610b4781610e70565b82525050565b610b5681610e70565b82525050565b6000610b69602a83610df7565b91507f4f6e6c792074686520626f72726f7765722063616e20706572666f726d20746860008301527f697320616374696f6e2e000000000000000000000000000000000000000000006020830152604082019050919050565b6000610bcf601d83610df7565b91507f436f6e7472616374204944206973206f7574206f6620626f756e64732e0000006000830152602082019050919050565b61010082016000820151610c196000850182610ca4565b506020820151610c2c6020850182610ca4565b506040820151610c3f6040850182610ac2565b506060820151610c526060850182610ca4565b506080820151610c656080850182610ca4565b5060a0820151610c7860a0850182610ca4565b5060c0820151610c8b60c0850182610ca4565b5060e0820151610c9e60e0850182610b3e565b50505050565b610cad81610e9c565b82525050565b610cbc81610e9c565b82525050565b60006020820190508181036000830152610cdc8184610ae0565b905092915050565b60006020820190508181036000830152610cfd81610b5c565b9050919050565b60006020820190508181036000830152610d1d81610bc2565b9050919050565b600061010082019050610d3a6000830184610c02565b92915050565b600061010082019050610d56600083018b610cb3565b610d63602083018a610cb3565b610d706040830189610ad1565b610d7d6060830188610cb3565b610d8a6080830187610cb3565b610d9760a0830186610cb3565b610da460c0830185610cb3565b610db160e0830184610b4d565b9998505050505050505050565b6000819050602082019050919050565b600081519050919050565b6000602082019050919050565b600082825260208201905092915050565b600082825260208201905092915050565b6000610e1382610e9c565b9150610e1e83610e9c565b9250827fffffffffffffffffffffffffffffffffffffffffffffffffffffffffffffffff03821115610e5357610e52610eef565b5b828201905092915050565b6000610e6982610e7c565b9050919050565b60008115159050919050565b600073ffffffffffffffffffffffffffffffffffffffff82169050919050565b6000819050919050565b6000610eb182610e9c565b91507fffffffffffffffffffffffffffffffffffffffffffffffffffffffffffffffff821415610ee457610ee3610eef565b5b600182019050919050565b7f4e487b7100000000000000000000000000000000000000000000000000000000600052601160045260246000fd5b610f2781610e5e565b8114610f3257600080fd5b50565b610f3e81610e9c565b8114610f4957600080fd5b5056fea2646970667358221220ee368934b9cc81ffe0c33a56260312dd13c80e9db0d5b7200ed06e3c7b43dd3564736f6c63430008000033",
  "immutableReferences": {},
  "source": "// SPDX-License-Identifier: MIT\r\npragma solidity ^0.8.0;\r\n\r\ncontract BorrowerContract {\r\n    struct Contract {\r\n        uint256 id;\r\n        uint256 borrowerId; // Added field\r\n        address borrower;\r\n        uint256 loanAmount;\r\n        uint256 interestRate;\r\n        uint256 startDate;\r\n        uint256 endDate;\r\n        bool isActive;\r\n    }\r\n\r\n    Contract[] public contracts;\r\n\r\n    modifier contractExists(uint _id) {\r\n        require(_id < contracts.length, \"Contract ID is out of bounds.\");\r\n        _;\r\n    }\r\n\r\n    modifier onlyBorrower(uint _id) {\r\n        require(msg.sender == contracts[_id].borrower, \"Only the borrower can perform this action.\");\r\n        _;\r\n    }\r\n\r\n    function createContract(uint _borrowerId, uint _loanAmount, uint _interestRate, uint _startDate) public {\r\n        uint _endDate = _startDate + 30 days;\r\n        contracts.push(Contract(contracts.length, _borrowerId, msg.sender, _loanAmount, _interestRate, _startDate, _endDate, true));\r\n    }\r\n\r\n    function updateContract(uint _id, uint _loanAmount, uint _interestRate) public contractExists(_id) onlyBorrower(_id) {\r\n        Contract storage contractToUpdate = contracts[_id];\r\n        contractToUpdate.loanAmount = _loanAmount;\r\n        contractToUpdate.interestRate = _interestRate;\r\n    }\r\n\r\n    function listUserContracts(address _user) public view returns (uint256[] memory) {\r\n        uint256[] memory userContractIds = new uint256[](contracts.length);\r\n        uint currentIndex = 0;\r\n        for (uint i = 0; i < contracts.length; i++) {\r\n            if (contracts[i].borrower == _user) {\r\n                userContractIds[currentIndex] = i;\r\n                currentIndex++;\r\n            }\r\n        }\r\n        return userContractIds;\r\n    }\r\n\r\n    function getContractDetails(uint _id) public view contractExists(_id) returns (Contract memory) {\r\n        return contracts[_id];\r\n    }\r\n\r\n    function invalidateContract(uint _id) public contractExists(_id) onlyBorrower(_id) {\r\n        contracts[_id].isActive = false;\r\n    }\r\n}\r\n",
  "sourcePath": "C:\\Users\\User\\OneDrive - Asia Pacific University\\APU\\FYP + IR\\06 Final Year Project\\Sky-P2P\\backend\\contracts\\BorrowerContract.sol",
  "compiler": {
    "name": "solc",
    "version": "0.8.0+commit.c7dfd78e.Emscripten.clang"
  },
  "schemaVersion": "3.4.16",
  "updatedAt": "2023-12-24T13:50:29.767Z",
  "networkType": "ethereum",
  "devdoc": {
    "kind": "dev",
    "methods": {},
    "version": 1
  },
  "userdoc": {
    "kind": "user",
    "methods": {},
    "version": 1
  }
}