{
  "contractName": "BorrowerContract",
  "abi": [
    {
      "inputs": [
        {
          "internalType": "uint256",
          "name": "",
          "type": "uint256"
        }
      ],
      "name": "contracts",
      "outputs": [
        {
          "internalType": "uint256",
          "name": "id",
          "type": "uint256"
        },
        {
          "internalType": "uint256",
          "name": "borrowerId",
          "type": "uint256"
        },
        {
          "internalType": "address",
          "name": "borrower",
          "type": "address"
        },
        {
          "internalType": "uint256",
          "name": "loanAmount",
          "type": "uint256"
        },
        {
          "internalType": "uint256",
          "name": "interestRate",
          "type": "uint256"
        },
        {
          "internalType": "uint256",
          "name": "startDate",
          "type": "uint256"
        },
        {
          "internalType": "uint256",
          "name": "endDate",
          "type": "uint256"
        },
        {
          "internalType": "bool",
          "name": "isActive",
          "type": "bool"
        }
      ],
      "stateMutability": "view",
      "type": "function",
      "constant": true
    },
    {
      "inputs": [
        {
          "internalType": "uint256",
          "name": "_borrowerId",
          "type": "uint256"
        },
        {
          "internalType": "uint256",
          "name": "_loanAmount",
          "type": "uint256"
        },
        {
          "internalType": "uint256",
          "name": "_interestRate",
          "type": "uint256"
        },
        {
          "internalType": "uint256",
          "name": "_startDate",
          "type": "uint256"
        }
      ],
      "name": "createContract",
      "outputs": [],
      "stateMutability": "nonpayable",
      "type": "function"
    },
    {
      "inputs": [
        {
          "internalType": "uint256",
          "name": "_id",
          "type": "uint256"
        },
        {
          "internalType": "uint256",
          "name": "_loanAmount",
          "type": "uint256"
        },
        {
          "internalType": "uint256",
          "name": "_interestRate",
          "type": "uint256"
        }
      ],
      "name": "updateContract",
      "outputs": [],
      "stateMutability": "nonpayable",
      "type": "function"
    },
    {
      "inputs": [
        {
          "internalType": "uint256",
          "name": "_borrowerId",
          "type": "uint256"
        }
      ],
      "name": "listAllContractsForBorrowerId",
      "outputs": [
        {
          "components": [
            {
              "internalType": "uint256",
              "name": "id",
              "type": "uint256"
            },
            {
              "internalType": "uint256",
              "name": "borrowerId",
              "type": "uint256"
            },
            {
              "internalType": "address",
              "name": "borrower",
              "type": "address"
            },
            {
              "internalType": "uint256",
              "name": "loanAmount",
              "type": "uint256"
            },
            {
              "internalType": "uint256",
              "name": "interestRate",
              "type": "uint256"
            },
            {
              "internalType": "uint256",
              "name": "startDate",
              "type": "uint256"
            },
            {
              "internalType": "uint256",
              "name": "endDate",
              "type": "uint256"
            },
            {
              "internalType": "bool",
              "name": "isActive",
              "type": "bool"
            }
          ],
          "internalType": "struct BorrowerContract.DetailedContract[]",
          "name": "",
          "type": "tuple[]"
        }
      ],
      "stateMutability": "view",
      "type": "function",
      "constant": true
    },
    {
      "inputs": [
        {
          "internalType": "uint256",
          "name": "_id",
          "type": "uint256"
        }
      ],
      "name": "getContractDetails",
      "outputs": [
        {
          "components": [
            {
              "internalType": "uint256",
              "name": "id",
              "type": "uint256"
            },
            {
              "internalType": "uint256",
              "name": "borrowerId",
              "type": "uint256"
            },
            {
              "internalType": "address",
              "name": "borrower",
              "type": "address"
            },
            {
              "internalType": "uint256",
              "name": "loanAmount",
              "type": "uint256"
            },
            {
              "internalType": "uint256",
              "name": "interestRate",
              "type": "uint256"
            },
            {
              "internalType": "uint256",
              "name": "startDate",
              "type": "uint256"
            },
            {
              "internalType": "uint256",
              "name": "endDate",
              "type": "uint256"
            },
            {
              "internalType": "bool",
              "name": "isActive",
              "type": "bool"
            }
          ],
          "internalType": "struct BorrowerContract.Contract",
          "name": "",
          "type": "tuple"
        }
      ],
      "stateMutability": "view",
      "type": "function",
      "constant": true
    },
    {
      "inputs": [
        {
          "internalType": "uint256",
          "name": "_id",
          "type": "uint256"
        }
      ],
      "name": "invalidateContract",
      "outputs": [],
      "stateMutability": "nonpayable",
      "type": "function"
    }
  ],
  "bytecode": "0x608060405234801561001057600080fd5b50611292806100206000396000f3fe608060405234801561001057600080fd5b50600436106100625760003560e01c806338aa5a8814610067578063474da79a146100835780634d6d6a9c146100ba57806359a48e46146100ea5780635e905833146101065780639e1a4c7e14610122575b600080fd5b610081600480360381019061007c9190610ccb565b610152565b005b61009d60048036038101906100989190610c53565b610294565b6040516100b1989796959493929190611067565b60405180910390f35b6100d460048036038101906100cf9190610c53565b610319565b6040516100e1919061104b565b60405180910390f35b61010460048036038101906100ff9190610c53565b610472565b005b610120600480360381019061011b9190610c7c565b6105fc565b005b61013c60048036038101906101379190610c53565b610783565b6040516101499190610fe9565b60405180910390f35b600062278d0082610163919061112f565b9050600060405180610100016040528060008054905081526020018781526020013373ffffffffffffffffffffffffffffffffffffffff168152602001868152602001858152602001848152602001838152602001600115158152509080600181540180825580915050600190039060005260206000209060080201600090919091909150600082015181600001556020820151816001015560408201518160020160006101000a81548173ffffffffffffffffffffffffffffffffffffffff021916908373ffffffffffffffffffffffffffffffffffffffff160217905550606082015181600301556080820151816004015560a0820151816005015560c0820151816006015560e08201518160070160006101000a81548160ff02191690831515021790555050505050505050565b600081815481106102a457600080fd5b90600052602060002090600802016000915090508060000154908060010154908060020160009054906101000a900473ffffffffffffffffffffffffffffffffffffffff16908060030154908060040154908060050154908060060154908060070160009054906101000a900460ff16905088565b610321610b84565b816000805490508110610369576040517f08c379a00000000000000000000000000000000000000000000000000000000081526004016103609061102b565b60405180910390fd5b600083815481106103a3577f4e487b7100000000000000000000000000000000000000000000000000000000600052603260045260246000fd5b90600052602060002090600802016040518061010001604052908160008201548152602001600182015481526020016002820160009054906101000a900473ffffffffffffffffffffffffffffffffffffffff1673ffffffffffffffffffffffffffffffffffffffff1673ffffffffffffffffffffffffffffffffffffffff168152602001600382015481526020016004820154815260200160058201548152602001600682015481526020016007820160009054906101000a900460ff161515151581525050915050919050565b8060008054905081106104ba576040517f08c379a00000000000000000000000000000000000000000000000000000000081526004016104b19061102b565b60405180910390fd5b81600081815481106104f5577f4e487b7100000000000000000000000000000000000000000000000000000000600052603260045260246000fd5b906000526020600020906008020160020160009054906101000a900473ffffffffffffffffffffffffffffffffffffffff1673ffffffffffffffffffffffffffffffffffffffff163373ffffffffffffffffffffffffffffffffffffffff1614610594576040517f08c379a000000000000000000000000000000000000000000000000000000000815260040161058b9061100b565b60405180910390fd5b60008084815481106105cf577f4e487b7100000000000000000000000000000000000000000000000000000000600052603260045260246000fd5b906000526020600020906008020160070160006101000a81548160ff021916908315150217905550505050565b826000805490508110610644576040517f08c379a000000000000000000000000000000000000000000000000000000000815260040161063b9061102b565b60405180910390fd5b836000818154811061067f577f4e487b7100000000000000000000000000000000000000000000000000000000600052603260045260246000fd5b906000526020600020906008020160020160009054906101000a900473ffffffffffffffffffffffffffffffffffffffff1673ffffffffffffffffffffffffffffffffffffffff163373ffffffffffffffffffffffffffffffffffffffff161461071e576040517f08c379a00000000000000000000000000000000000000000000000000000000081526004016107159061100b565b60405180910390fd5b6000808681548110610759577f4e487b7100000000000000000000000000000000000000000000000000000000600052603260045260246000fd5b90600052602060002090600802019050848160030181905550838160040181905550505050505050565b60606000610790836109b0565b90506000815167ffffffffffffffff8111156107d5577f4e487b7100000000000000000000000000000000000000000000000000000000600052604160045260246000fd5b60405190808252806020026020018201604052801561080e57816020015b6107fb610be1565b8152602001906001900390816107f35790505b50905060005b82518110156109a5576000838281518110610858577f4e487b7100000000000000000000000000000000000000000000000000000000600052603260045260246000fd5b60200260200101519050600080828154811061089d577f4e487b7100000000000000000000000000000000000000000000000000000000600052603260045260246000fd5b9060005260206000209060080201905060405180610100016040528082600001548152602001826001015481526020018260020160009054906101000a900473ffffffffffffffffffffffffffffffffffffffff1673ffffffffffffffffffffffffffffffffffffffff168152602001826003015481526020018260040154815260200182600501548152602001826006015481526020018260070160009054906101000a900460ff161515815250848481518110610985577f4e487b7100000000000000000000000000000000000000000000000000000000600052603260045260246000fd5b60200260200101819052505050808061099d906111cd565b915050610814565b508092505050919050565b60606000805b600080549050811015610a385783600082815481106109fe577f4e487b7100000000000000000000000000000000000000000000000000000000600052603260045260246000fd5b9060005260206000209060080201600101541415610a25578180610a21906111cd565b9250505b8080610a30906111cd565b9150506109b6565b5060008167ffffffffffffffff811115610a7b577f4e487b7100000000000000000000000000000000000000000000000000000000600052604160045260246000fd5b604051908082528060200260200182016040528015610aa95781602001602082028036833780820191505090505b5090506000805b600080549050811015610b78578560008281548110610af8577f4e487b7100000000000000000000000000000000000000000000000000000000600052603260045260246000fd5b9060005260206000209060080201600101541415610b655780838381518110610b4a577f4e487b7100000000000000000000000000000000000000000000000000000000600052603260045260246000fd5b6020026020010181815250508180610b61906111cd565b9250505b8080610b70906111cd565b915050610ab0565b50819350505050919050565b6040518061010001604052806000815260200160008152602001600073ffffffffffffffffffffffffffffffffffffffff168152602001600081526020016000815260200160008152602001600081526020016000151581525090565b6040518061010001604052806000815260200160008152602001600073ffffffffffffffffffffffffffffffffffffffff168152602001600081526020016000815260200160008152602001600081526020016000151581525090565b600081359050610c4d81611245565b92915050565b600060208284031215610c6557600080fd5b6000610c7384828501610c3e565b91505092915050565b600080600060608486031215610c9157600080fd5b6000610c9f86828701610c3e565b9350506020610cb086828701610c3e565b9250506040610cc186828701610c3e565b9150509250925092565b60008060008060808587031215610ce157600080fd5b6000610cef87828801610c3e565b9450506020610d0087828801610c3e565b9350506040610d1187828801610c3e565b9250506060610d2287828801610c3e565b91505092959194509250565b6000610d3a8383610f29565b6101008301905092915050565b610d5081611185565b82525050565b610d5f81611185565b82525050565b6000610d70826110f5565b610d7a818561110d565b9350610d85836110e5565b8060005b83811015610db6578151610d9d8882610d2e565b9750610da883611100565b925050600181019050610d89565b5085935050505092915050565b610dcc81611197565b82525050565b610ddb81611197565b82525050565b6000610dee602a8361111e565b91507f4f6e6c792074686520626f72726f7765722063616e20706572666f726d20746860008301527f697320616374696f6e2e000000000000000000000000000000000000000000006020830152604082019050919050565b6000610e54601d8361111e565b91507f436f6e7472616374204944206973206f7574206f6620626f756e64732e0000006000830152602082019050919050565b61010082016000820151610e9e6000850182610fcb565b506020820151610eb16020850182610fcb565b506040820151610ec46040850182610d47565b506060820151610ed76060850182610fcb565b506080820151610eea6080850182610fcb565b5060a0820151610efd60a0850182610fcb565b5060c0820151610f1060c0850182610fcb565b5060e0820151610f2360e0850182610dc3565b50505050565b61010082016000820151610f406000850182610fcb565b506020820151610f536020850182610fcb565b506040820151610f666040850182610d47565b506060820151610f796060850182610fcb565b506080820151610f8c6080850182610fcb565b5060a0820151610f9f60a0850182610fcb565b5060c0820151610fb260c0850182610fcb565b5060e0820151610fc560e0850182610dc3565b50505050565b610fd4816111c3565b82525050565b610fe3816111c3565b82525050565b600060208201905081810360008301526110038184610d65565b905092915050565b6000602082019050818103600083015261102481610de1565b9050919050565b6000602082019050818103600083015261104481610e47565b9050919050565b6000610100820190506110616000830184610e87565b92915050565b60006101008201905061107d600083018b610fda565b61108a602083018a610fda565b6110976040830189610d56565b6110a46060830188610fda565b6110b16080830187610fda565b6110be60a0830186610fda565b6110cb60c0830185610fda565b6110d860e0830184610dd2565b9998505050505050505050565b6000819050602082019050919050565b600081519050919050565b6000602082019050919050565b600082825260208201905092915050565b600082825260208201905092915050565b600061113a826111c3565b9150611145836111c3565b9250827fffffffffffffffffffffffffffffffffffffffffffffffffffffffffffffffff0382111561117a57611179611216565b5b828201905092915050565b6000611190826111a3565b9050919050565b60008115159050919050565b600073ffffffffffffffffffffffffffffffffffffffff82169050919050565b6000819050919050565b60006111d8826111c3565b91507fffffffffffffffffffffffffffffffffffffffffffffffffffffffffffffffff82141561120b5761120a611216565b5b600182019050919050565b7f4e487b7100000000000000000000000000000000000000000000000000000000600052601160045260246000fd5b61124e816111c3565b811461125957600080fd5b5056fea264697066735822122064e7539e3df4bcaacf24844c9afcc4cd71ca2ca71c486b85cb9157f3707cabb064736f6c63430008000033",
  "immutableReferences": {},
  "source": "// SPDX-License-Identifier: MIT\r\npragma solidity ^0.8.0;\r\n\r\ncontract BorrowerContract {\r\n    struct Contract {\r\n        uint256 id;\r\n        uint256 borrowerId; // Added field\r\n        address borrower;\r\n        uint256 loanAmount;\r\n        uint256 interestRate;\r\n        uint256 startDate;\r\n        uint256 endDate;\r\n        bool isActive;\r\n    }\r\n\r\n    // Define a new struct to hold all relevant information for the front end\r\n    struct DetailedContract {\r\n        uint256 id;\r\n        uint256 borrowerId;\r\n        address borrower;\r\n        uint256 loanAmount;\r\n        uint256 interestRate;\r\n        uint256 startDate;\r\n        uint256 endDate;\r\n        bool isActive;\r\n    }\r\n\r\n    Contract[] public contracts;\r\n\r\n    modifier contractExists(uint _id) {\r\n        require(_id < contracts.length, \"Contract ID is out of bounds.\");\r\n        _;\r\n    }\r\n\r\n    modifier onlyBorrower(uint _id) {\r\n        require(msg.sender == contracts[_id].borrower, \"Only the borrower can perform this action.\");\r\n        _;\r\n    }\r\n\r\n    function createContract(uint _borrowerId, uint _loanAmount, uint _interestRate, uint _startDate) public {\r\n        uint _endDate = _startDate + 30 days;\r\n        contracts.push(Contract(contracts.length, _borrowerId, msg.sender, _loanAmount, _interestRate, _startDate, _endDate, true));\r\n    }\r\n\r\n    function updateContract(uint _id, uint _loanAmount, uint _interestRate) public contractExists(_id) onlyBorrower(_id) {\r\n        Contract storage contractToUpdate = contracts[_id];\r\n        contractToUpdate.loanAmount = _loanAmount;\r\n        contractToUpdate.interestRate = _interestRate;\r\n    }\r\n\r\n    function listAllContractsForBorrowerId(uint256 _borrowerId) public view returns (DetailedContract[] memory) {\r\n        uint256[] memory contractIndices = listUserContracts(_borrowerId);\r\n        DetailedContract[] memory detailedContracts = new DetailedContract[](contractIndices.length);\r\n\r\n        for (uint256 i = 0; i < contractIndices.length; i++) {\r\n            uint256 contractIndex = contractIndices[i];\r\n            Contract storage contractItem = contracts[contractIndex];\r\n            detailedContracts[i] = DetailedContract(\r\n                contractItem.id,\r\n                contractItem.borrowerId,\r\n                contractItem.borrower,\r\n                contractItem.loanAmount,\r\n                contractItem.interestRate,\r\n                contractItem.startDate,\r\n                contractItem.endDate,\r\n                contractItem.isActive\r\n            );\r\n        }\r\n\r\n        return detailedContracts;\r\n    }\r\n\r\n    function listUserContracts(uint256 _borrowerId) internal view returns (uint256[] memory) {\r\n        uint256 contractCount = 0;\r\n        for (uint256 i = 0; i < contracts.length; i++) {\r\n            if (contracts[i].borrowerId == _borrowerId) {\r\n                contractCount++;\r\n            }\r\n        }\r\n\r\n        uint256[] memory contractIndices = new uint256[](contractCount);\r\n        uint256 currentIndex = 0;\r\n        for (uint256 i = 0; i < contracts.length; i++) {\r\n            if (contracts[i].borrowerId == _borrowerId) {\r\n                contractIndices[currentIndex] = i;\r\n                currentIndex++;\r\n            }\r\n        }\r\n        return contractIndices;\r\n    }\r\n\r\n    function getContractDetails(uint _id) public view contractExists(_id) returns (Contract memory) {\r\n        return contracts[_id];\r\n    }\r\n\r\n    function invalidateContract(uint _id) public contractExists(_id) onlyBorrower(_id) {\r\n        contracts[_id].isActive = false;\r\n    }\r\n}\r\n",
  "sourcePath": "C:\\Users\\User\\OneDrive - Asia Pacific University\\APU\\FYP + IR\\06 Final Year Project\\Sky-P2P\\backend\\contracts\\BorrowerContract.sol",
  "compiler": {
    "name": "solc",
    "version": "0.8.0+commit.c7dfd78e.Emscripten.clang"
  },
  "schemaVersion": "3.4.16",
  "updatedAt": "2023-12-24T17:28:03.331Z",
  "networkType": "ethereum",
  "devdoc": {
    "kind": "dev",
    "methods": {},
    "version": 1
  },
  "userdoc": {
    "kind": "user",
    "methods": {},
    "version": 1
  }
}