{
  "contractName": "BorrowerContract",
  "abi": [
    {
      "inputs": [
        {
          "internalType": "uint256",
          "name": "",
          "type": "uint256"
        }
      ],
      "name": "contracts",
      "outputs": [
        {
          "internalType": "uint256",
          "name": "id",
          "type": "uint256"
        },
        {
          "internalType": "address",
          "name": "borrower",
          "type": "address"
        },
        {
          "internalType": "uint256",
          "name": "loanAmount",
          "type": "uint256"
        },
        {
          "internalType": "uint256",
          "name": "interestRate",
          "type": "uint256"
        },
        {
          "internalType": "uint256",
          "name": "startDate",
          "type": "uint256"
        },
        {
          "internalType": "uint256",
          "name": "endDate",
          "type": "uint256"
        },
        {
          "internalType": "bool",
          "name": "isActive",
          "type": "bool"
        }
      ],
      "stateMutability": "view",
      "type": "function",
      "constant": true
    },
    {
      "inputs": [
        {
          "internalType": "uint256",
          "name": "_loanAmount",
          "type": "uint256"
        },
        {
          "internalType": "uint256",
          "name": "_interestRate",
          "type": "uint256"
        },
        {
          "internalType": "uint256",
          "name": "_startDate",
          "type": "uint256"
        }
      ],
      "name": "createContract",
      "outputs": [],
      "stateMutability": "nonpayable",
      "type": "function"
    },
    {
      "inputs": [
        {
          "internalType": "uint256",
          "name": "_id",
          "type": "uint256"
        },
        {
          "internalType": "uint256",
          "name": "_loanAmount",
          "type": "uint256"
        },
        {
          "internalType": "uint256",
          "name": "_interestRate",
          "type": "uint256"
        }
      ],
      "name": "updateContract",
      "outputs": [],
      "stateMutability": "nonpayable",
      "type": "function"
    },
    {
      "inputs": [
        {
          "internalType": "address",
          "name": "_user",
          "type": "address"
        }
      ],
      "name": "listUserContracts",
      "outputs": [
        {
          "internalType": "uint256[]",
          "name": "",
          "type": "uint256[]"
        }
      ],
      "stateMutability": "view",
      "type": "function",
      "constant": true
    },
    {
      "inputs": [
        {
          "internalType": "uint256",
          "name": "_id",
          "type": "uint256"
        }
      ],
      "name": "getContractDetails",
      "outputs": [
        {
          "components": [
            {
              "internalType": "uint256",
              "name": "id",
              "type": "uint256"
            },
            {
              "internalType": "address",
              "name": "borrower",
              "type": "address"
            },
            {
              "internalType": "uint256",
              "name": "loanAmount",
              "type": "uint256"
            },
            {
              "internalType": "uint256",
              "name": "interestRate",
              "type": "uint256"
            },
            {
              "internalType": "uint256",
              "name": "startDate",
              "type": "uint256"
            },
            {
              "internalType": "uint256",
              "name": "endDate",
              "type": "uint256"
            },
            {
              "internalType": "bool",
              "name": "isActive",
              "type": "bool"
            }
          ],
          "internalType": "struct BorrowerContract.Contract",
          "name": "",
          "type": "tuple"
        }
      ],
      "stateMutability": "view",
      "type": "function",
      "constant": true
    },
    {
      "inputs": [
        {
          "internalType": "uint256",
          "name": "_id",
          "type": "uint256"
        }
      ],
      "name": "invalidateContract",
      "outputs": [],
      "stateMutability": "nonpayable",
      "type": "function"
    }
  ],
  "bytecode": "0x608060405234801561001057600080fd5b50610ecf806100206000396000f3fe608060405234801561001057600080fd5b50600436106100625760003560e01c8063474da79a146100675780634d6d6a9c1461009d57806359a48e46146100cd5780635e905833146100e9578063c275f14e14610105578063e535332014610121575b600080fd5b610081600480360381019061007c91906109a3565b610151565b6040516100949796959493929190610c9c565b60405180910390f35b6100b760048036038101906100b291906109a3565b6101d0565b6040516100c49190610c81565b60405180910390f35b6100e760048036038101906100e291906109a3565b61031e565b005b61010360048036038101906100fe91906109cc565b6104a8565b005b61011f600480360381019061011a91906109cc565b61062f565b005b61013b6004803603810190610136919061097a565b61075f565b6040516101489190610c1f565b60405180910390f35b6000818154811061016157600080fd5b90600052602060002090600702016000915090508060000154908060010160009054906101000a900473ffffffffffffffffffffffffffffffffffffffff16908060020154908060030154908060040154908060050154908060060160009054906101000a900460ff16905087565b6101d86108fb565b816000805490508110610220576040517f08c379a000000000000000000000000000000000000000000000000000000000815260040161021790610c61565b60405180910390fd5b6000838154811061025a577f4e487b7100000000000000000000000000000000000000000000000000000000600052603260045260246000fd5b90600052602060002090600702016040518060e0016040529081600082015481526020016001820160009054906101000a900473ffffffffffffffffffffffffffffffffffffffff1673ffffffffffffffffffffffffffffffffffffffff1673ffffffffffffffffffffffffffffffffffffffff168152602001600282015481526020016003820154815260200160048201548152602001600582015481526020016006820160009054906101000a900460ff161515151581525050915050919050565b806000805490508110610366576040517f08c379a000000000000000000000000000000000000000000000000000000000815260040161035d90610c61565b60405180910390fd5b81600081815481106103a1577f4e487b7100000000000000000000000000000000000000000000000000000000600052603260045260246000fd5b906000526020600020906007020160010160009054906101000a900473ffffffffffffffffffffffffffffffffffffffff1673ffffffffffffffffffffffffffffffffffffffff163373ffffffffffffffffffffffffffffffffffffffff1614610440576040517f08c379a000000000000000000000000000000000000000000000000000000000815260040161043790610c41565b60405180910390fd5b600080848154811061047b577f4e487b7100000000000000000000000000000000000000000000000000000000600052603260045260246000fd5b906000526020600020906007020160060160006101000a81548160ff021916908315150217905550505050565b8260008054905081106104f0576040517f08c379a00000000000000000000000000000000000000000000000000000000081526004016104e790610c61565b60405180910390fd5b836000818154811061052b577f4e487b7100000000000000000000000000000000000000000000000000000000600052603260045260246000fd5b906000526020600020906007020160010160009054906101000a900473ffffffffffffffffffffffffffffffffffffffff1673ffffffffffffffffffffffffffffffffffffffff163373ffffffffffffffffffffffffffffffffffffffff16146105ca576040517f08c379a00000000000000000000000000000000000000000000000000000000081526004016105c190610c41565b60405180910390fd5b6000808681548110610605577f4e487b7100000000000000000000000000000000000000000000000000000000600052603260045260246000fd5b90600052602060002090600702019050848160020181905550838160030181905550505050505050565b600062278d00826106409190610d55565b905060006040518060e0016040528060008054905081526020013373ffffffffffffffffffffffffffffffffffffffff1681526020018681526020018581526020018481526020018381526020016001151581525090806001815401808255809150506001900390600052602060002090600702016000909190919091506000820151816000015560208201518160010160006101000a81548173ffffffffffffffffffffffffffffffffffffffff021916908373ffffffffffffffffffffffffffffffffffffffff16021790555060408201518160020155606082015181600301556080820151816004015560a0820151816005015560c08201518160060160006101000a81548160ff021916908315150217905550505050505050565b60606000808054905067ffffffffffffffff8111156107a7577f4e487b7100000000000000000000000000000000000000000000000000000000600052604160045260246000fd5b6040519080825280602002602001820160405280156107d55781602001602082028036833780820191505090505b5090506000805b6000805490508110156108f0578473ffffffffffffffffffffffffffffffffffffffff166000828154811061083a577f4e487b7100000000000000000000000000000000000000000000000000000000600052603260045260246000fd5b906000526020600020906007020160010160009054906101000a900473ffffffffffffffffffffffffffffffffffffffff1673ffffffffffffffffffffffffffffffffffffffff1614156108dd57808383815181106108c2577f4e487b7100000000000000000000000000000000000000000000000000000000600052603260045260246000fd5b60200260200101818152505081806108d990610df3565b9250505b80806108e890610df3565b9150506107dc565b508192505050919050565b6040518060e0016040528060008152602001600073ffffffffffffffffffffffffffffffffffffffff168152602001600081526020016000815260200160008152602001600081526020016000151581525090565b60008135905061095f81610e6b565b92915050565b60008135905061097481610e82565b92915050565b60006020828403121561098c57600080fd5b600061099a84828501610950565b91505092915050565b6000602082840312156109b557600080fd5b60006109c384828501610965565b91505092915050565b6000806000606084860312156109e157600080fd5b60006109ef86828701610965565b9350506020610a0086828701610965565b9250506040610a1186828701610965565b9150509250925092565b6000610a278383610c01565b60208301905092915050565b610a3c81610dab565b82525050565b610a4b81610dab565b82525050565b6000610a5c82610d1b565b610a668185610d33565b9350610a7183610d0b565b8060005b83811015610aa2578151610a898882610a1b565b9750610a9483610d26565b925050600181019050610a75565b5085935050505092915050565b610ab881610dbd565b82525050565b610ac781610dbd565b82525050565b6000610ada602a83610d44565b91507f4f6e6c792074686520626f72726f7765722063616e20706572666f726d20746860008301527f697320616374696f6e2e000000000000000000000000000000000000000000006020830152604082019050919050565b6000610b40601d83610d44565b91507f436f6e7472616374204944206973206f7574206f6620626f756e64732e0000006000830152602082019050919050565b60e082016000820151610b896000850182610c01565b506020820151610b9c6020850182610a33565b506040820151610baf6040850182610c01565b506060820151610bc26060850182610c01565b506080820151610bd56080850182610c01565b5060a0820151610be860a0850182610c01565b5060c0820151610bfb60c0850182610aaf565b50505050565b610c0a81610de9565b82525050565b610c1981610de9565b82525050565b60006020820190508181036000830152610c398184610a51565b905092915050565b60006020820190508181036000830152610c5a81610acd565b9050919050565b60006020820190508181036000830152610c7a81610b33565b9050919050565b600060e082019050610c966000830184610b73565b92915050565b600060e082019050610cb1600083018a610c10565b610cbe6020830189610a42565b610ccb6040830188610c10565b610cd86060830187610c10565b610ce56080830186610c10565b610cf260a0830185610c10565b610cff60c0830184610abe565b98975050505050505050565b6000819050602082019050919050565b600081519050919050565b6000602082019050919050565b600082825260208201905092915050565b600082825260208201905092915050565b6000610d6082610de9565b9150610d6b83610de9565b9250827fffffffffffffffffffffffffffffffffffffffffffffffffffffffffffffffff03821115610da057610d9f610e3c565b5b828201905092915050565b6000610db682610dc9565b9050919050565b60008115159050919050565b600073ffffffffffffffffffffffffffffffffffffffff82169050919050565b6000819050919050565b6000610dfe82610de9565b91507fffffffffffffffffffffffffffffffffffffffffffffffffffffffffffffffff821415610e3157610e30610e3c565b5b600182019050919050565b7f4e487b7100000000000000000000000000000000000000000000000000000000600052601160045260246000fd5b610e7481610dab565b8114610e7f57600080fd5b50565b610e8b81610de9565b8114610e9657600080fd5b5056fea2646970667358221220f50bf10dd0316fce0e86eb5eaf43da11cb836f398b8806e712ea90b8cf6e1de064736f6c63430008000033",
  "immutableReferences": {},
  "source": "// SPDX-License-Identifier: MIT\r\npragma solidity ^0.8.0;\r\n\r\ncontract BorrowerContract {\r\n    struct Contract {\r\n        uint256 id;\r\n        address borrower;\r\n        uint256 loanAmount;\r\n        uint256 interestRate;\r\n        uint256 startDate;\r\n        uint256 endDate;\r\n        bool isActive;\r\n    }\r\n\r\n    Contract[] public contracts;\r\n\r\n    modifier contractExists(uint _id) {\r\n        require(_id < contracts.length, \"Contract ID is out of bounds.\");\r\n        _;\r\n    }\r\n\r\n    modifier onlyBorrower(uint _id) {\r\n        require(msg.sender == contracts[_id].borrower, \"Only the borrower can perform this action.\");\r\n        _;\r\n    }\r\n\r\n    function createContract(uint _loanAmount, uint _interestRate, uint _startDate) public {\r\n        uint _endDate = _startDate + 30 days;\r\n        contracts.push(Contract(contracts.length, msg.sender, _loanAmount, _interestRate, _startDate, _endDate, true));\r\n    }\r\n\r\n    function updateContract(uint _id, uint _loanAmount, uint _interestRate) public contractExists(_id) onlyBorrower(_id) {\r\n        Contract storage contractToUpdate = contracts[_id];\r\n        contractToUpdate.loanAmount = _loanAmount;\r\n        contractToUpdate.interestRate = _interestRate;\r\n    }\r\n\r\n    function listUserContracts(address _user) public view returns (uint256[] memory) {\r\n        uint256[] memory userContractIds = new uint256[](contracts.length);\r\n        uint currentIndex = 0;\r\n        for (uint i = 0; i < contracts.length; i++) {\r\n            if (contracts[i].borrower == _user) {\r\n                userContractIds[currentIndex] = i;\r\n                currentIndex++;\r\n            }\r\n        }\r\n        return userContractIds;\r\n    }\r\n\r\n    function getContractDetails(uint _id) public view contractExists(_id) returns (Contract memory) {\r\n        return contracts[_id];\r\n    }\r\n\r\n    function invalidateContract(uint _id) public contractExists(_id) onlyBorrower(_id) {\r\n        contracts[_id].isActive = false;\r\n    }\r\n}\r\n",
  "sourcePath": "C:\\Users\\User\\OneDrive - Asia Pacific University\\APU\\FYP + IR\\06 Final Year Project\\Sky-P2P\\backend\\contracts\\BorrowerContract.sol",
  "compiler": {
    "name": "solc",
    "version": "0.8.0+commit.c7dfd78e.Emscripten.clang"
  },
  "schemaVersion": "3.4.16",
  "updatedAt": "2023-12-23T18:19:12.268Z",
  "networkType": "ethereum",
  "devdoc": {
    "kind": "dev",
    "methods": {},
    "version": 1
  },
  "userdoc": {
    "kind": "user",
    "methods": {},
    "version": 1
  }
}