{
  "contractName": "CreditScoreContract",
  "abi": [
    {
      "inputs": [
        {
          "internalType": "uint256",
          "name": "",
          "type": "uint256"
        }
      ],
      "name": "creditScores",
      "outputs": [
        {
          "internalType": "uint256",
          "name": "id",
          "type": "uint256"
        },
        {
          "internalType": "uint256",
          "name": "borrowerId",
          "type": "uint256"
        },
        {
          "internalType": "uint256",
          "name": "score",
          "type": "uint256"
        },
        {
          "internalType": "uint256",
          "name": "scoreDate",
          "type": "uint256"
        }
      ],
      "stateMutability": "view",
      "type": "function"
    },
    {
      "inputs": [
        {
          "internalType": "uint256",
          "name": "_borrowerId",
          "type": "uint256"
        },
        {
          "internalType": "uint256",
          "name": "_score",
          "type": "uint256"
        },
        {
          "internalType": "uint256",
          "name": "_scoreDate",
          "type": "uint256"
        }
      ],
      "name": "createCreditScore",
      "outputs": [],
      "stateMutability": "nonpayable",
      "type": "function"
    },
    {
      "inputs": [],
      "name": "getAllCreditScores",
      "outputs": [
        {
          "components": [
            {
              "internalType": "uint256",
              "name": "id",
              "type": "uint256"
            },
            {
              "internalType": "uint256",
              "name": "borrowerId",
              "type": "uint256"
            },
            {
              "internalType": "uint256",
              "name": "score",
              "type": "uint256"
            },
            {
              "internalType": "uint256",
              "name": "scoreDate",
              "type": "uint256"
            }
          ],
          "internalType": "struct CreditScoreContract.CreditScore[]",
          "name": "",
          "type": "tuple[]"
        }
      ],
      "stateMutability": "view",
      "type": "function"
    },
    {
      "inputs": [
        {
          "internalType": "uint256",
          "name": "_borrowerId",
          "type": "uint256"
        }
      ],
      "name": "getCreditScoresForBorrowerId",
      "outputs": [
        {
          "components": [
            {
              "internalType": "uint256",
              "name": "id",
              "type": "uint256"
            },
            {
              "internalType": "uint256",
              "name": "borrowerId",
              "type": "uint256"
            },
            {
              "internalType": "uint256",
              "name": "score",
              "type": "uint256"
            },
            {
              "internalType": "uint256",
              "name": "scoreDate",
              "type": "uint256"
            }
          ],
          "internalType": "struct CreditScoreContract.CreditScore[]",
          "name": "",
          "type": "tuple[]"
        }
      ],
      "stateMutability": "view",
      "type": "function"
    }
  ],
  "bytecode": "0x608060405234801561001057600080fd5b5061079a806100206000396000f3fe608060405234801561001057600080fd5b506004361061004c5760003560e01c80633979aebe146100515780639b8d1f5c146100815780639f8b2cc11461009d578063e75649d6146100d0575b600080fd5b61006b600480360381019061006691906104ca565b6100ee565b604051610078919061062b565b60405180910390f35b61009b600480360381019061009691906104f3565b610346565b005b6100b760048036038101906100b291906104ca565b6103c6565b6040516100c7949392919061064d565b60405180910390f35b6100d8610406565b6040516100e5919061062b565b60405180910390f35b60606000805b60008054905081101561017657836000828154811061013c577f4e487b7100000000000000000000000000000000000000000000000000000000600052603260045260246000fd5b906000526020600020906004020160010154141561016357818061015f906106d5565b9250505b808061016e906106d5565b9150506100f4565b5060008167ffffffffffffffff8111156101b9577f4e487b7100000000000000000000000000000000000000000000000000000000600052604160045260246000fd5b6040519080825280602002602001820160405280156101f257816020015b6101df61048d565b8152602001906001900390816101d75790505b5090506000805b60008054905081101561033a578560008281548110610241577f4e487b7100000000000000000000000000000000000000000000000000000000600052603260045260246000fd5b90600052602060002090600402016001015414156103275760008181548110610293577f4e487b7100000000000000000000000000000000000000000000000000000000600052603260045260246000fd5b906000526020600020906004020160405180608001604052908160008201548152602001600182015481526020016002820154815260200160038201548152505083838151811061030d577f4e487b7100000000000000000000000000000000000000000000000000000000600052603260045260246000fd5b60200260200101819052508180610323906106d5565b9250505b8080610332906106d5565b9150506101f9565b50819350505050919050565b600060405180608001604052806000805490508152602001858152602001848152602001838152509080600181540180825580915050600190039060005260206000209060040201600090919091909150600082015181600001556020820151816001015560408201518160020155606082015181600301555050505050565b600081815481106103d657600080fd5b90600052602060002090600402016000915090508060000154908060010154908060020154908060030154905084565b60606000805480602002602001604051908101604052809291908181526020016000905b8282101561048457838290600052602060002090600402016040518060800160405290816000820154815260200160018201548152602001600282015481526020016003820154815250508152602001906001019061042a565b50505050905090565b6040518060800160405280600081526020016000815260200160008152602001600081525090565b6000813590506104c48161074d565b92915050565b6000602082840312156104dc57600080fd5b60006104ea848285016104b5565b91505092915050565b60008060006060848603121561050857600080fd5b6000610516868287016104b5565b9350506020610527868287016104b5565b9250506040610538868287016104b5565b9150509250925092565b600061054e83836105b8565b60808301905092915050565b6000610565826106a2565b61056f81856106ba565b935061057a83610692565b8060005b838110156105ab5781516105928882610542565b975061059d836106ad565b92505060018101905061057e565b5085935050505092915050565b6080820160008201516105ce600085018261060d565b5060208201516105e1602085018261060d565b5060408201516105f4604085018261060d565b506060820151610607606085018261060d565b50505050565b610616816106cb565b82525050565b610625816106cb565b82525050565b60006020820190508181036000830152610645818461055a565b905092915050565b6000608082019050610662600083018761061c565b61066f602083018661061c565b61067c604083018561061c565b610689606083018461061c565b95945050505050565b6000819050602082019050919050565b600081519050919050565b6000602082019050919050565b600082825260208201905092915050565b6000819050919050565b60006106e0826106cb565b91507fffffffffffffffffffffffffffffffffffffffffffffffffffffffffffffffff8214156107135761071261071e565b5b600182019050919050565b7f4e487b7100000000000000000000000000000000000000000000000000000000600052601160045260246000fd5b610756816106cb565b811461076157600080fd5b5056fea2646970667358221220fbc83eee7a7e885318e3170bba57f3cf670b76d8d80a218a2361a8b20ebe067b64736f6c63430008000033",
  "immutableReferences": {},
  "source": "pragma solidity ^0.8.0;\r\n\r\ncontract CreditScoreContract {\r\n    struct CreditScore {\r\n        uint id;\r\n        uint borrowerId;\r\n        uint score;\r\n        uint scoreDate;\r\n    }\r\n\r\n    CreditScore[] public creditScores;\r\n\r\n    function createCreditScore(uint _borrowerId, uint _score, uint _scoreDate) public {\r\n        creditScores.push(CreditScore(creditScores.length, _borrowerId, _score, _scoreDate));\r\n    }\r\n\r\n    function getAllCreditScores() public view returns (CreditScore[] memory) {\r\n        return creditScores;\r\n    }\r\n\r\n    function getCreditScoresForBorrowerId(uint _borrowerId) public view returns (CreditScore[] memory) {\r\n        uint scoreCount = 0;\r\n        for (uint i = 0; i < creditScores.length; i++) {\r\n            if (creditScores[i].borrowerId == _borrowerId) {\r\n                scoreCount++;\r\n            }\r\n        }\r\n\r\n        CreditScore[] memory borrowerScores = new CreditScore[](scoreCount);\r\n        uint currentIndex = 0;\r\n        for (uint i = 0; i < creditScores.length; i++) {\r\n            if (creditScores[i].borrowerId == _borrowerId) {\r\n                borrowerScores[currentIndex] = creditScores[i];\r\n                currentIndex++;\r\n            }\r\n        }\r\n        return borrowerScores;\r\n    }\r\n}\r\n",
  "sourcePath": "C:\\Users\\User\\OneDrive - Asia Pacific University\\APU\\FYP + IR\\06 Final Year Project\\Sky-P2P\\backend\\contracts\\CreditScore.sol",
  "compiler": {
    "name": "solc",
    "version": "0.8.0+commit.c7dfd78e.Emscripten.clang"
  },
  "schemaVersion": "3.4.16",
  "updatedAt": "2023-12-24T20:14:06.348Z",
  "devdoc": {
    "kind": "dev",
    "methods": {},
    "version": 1
  },
  "userdoc": {
    "kind": "user",
    "methods": {},
    "version": 1
  }
}