{
  "contractName": "CreditScoreContract",
  "abi": [
    {
      "inputs": [
        {
          "internalType": "uint256",
          "name": "",
          "type": "uint256"
        }
      ],
      "name": "creditScores",
      "outputs": [
        {
          "internalType": "uint256",
          "name": "id",
          "type": "uint256"
        },
        {
          "internalType": "uint256",
          "name": "borrowerId",
          "type": "uint256"
        },
        {
          "internalType": "uint256",
          "name": "score",
          "type": "uint256"
        },
        {
          "internalType": "uint256",
          "name": "scoreDate",
          "type": "uint256"
        },
        {
          "internalType": "bytes32",
          "name": "blockHash",
          "type": "bytes32"
        }
      ],
      "stateMutability": "view",
      "type": "function",
      "constant": true
    },
    {
      "inputs": [
        {
          "internalType": "uint256",
          "name": "_borrowerId",
          "type": "uint256"
        },
        {
          "internalType": "uint256",
          "name": "_score",
          "type": "uint256"
        },
        {
          "internalType": "uint256",
          "name": "_scoreDate",
          "type": "uint256"
        }
      ],
      "name": "createCreditScore",
      "outputs": [],
      "stateMutability": "nonpayable",
      "type": "function"
    },
    {
      "inputs": [],
      "name": "getAllCreditScores",
      "outputs": [
        {
          "components": [
            {
              "internalType": "uint256",
              "name": "id",
              "type": "uint256"
            },
            {
              "internalType": "uint256",
              "name": "borrowerId",
              "type": "uint256"
            },
            {
              "internalType": "uint256",
              "name": "score",
              "type": "uint256"
            },
            {
              "internalType": "uint256",
              "name": "scoreDate",
              "type": "uint256"
            },
            {
              "internalType": "bytes32",
              "name": "blockHash",
              "type": "bytes32"
            }
          ],
          "internalType": "struct CreditScoreContract.CreditScore[]",
          "name": "",
          "type": "tuple[]"
        }
      ],
      "stateMutability": "view",
      "type": "function",
      "constant": true
    },
    {
      "inputs": [
        {
          "internalType": "uint256",
          "name": "_borrowerId",
          "type": "uint256"
        }
      ],
      "name": "getCreditScoresForBorrowerId",
      "outputs": [
        {
          "components": [
            {
              "internalType": "uint256",
              "name": "id",
              "type": "uint256"
            },
            {
              "internalType": "uint256",
              "name": "borrowerId",
              "type": "uint256"
            },
            {
              "internalType": "uint256",
              "name": "score",
              "type": "uint256"
            },
            {
              "internalType": "uint256",
              "name": "scoreDate",
              "type": "uint256"
            },
            {
              "internalType": "bytes32",
              "name": "blockHash",
              "type": "bytes32"
            }
          ],
          "internalType": "struct CreditScoreContract.CreditScore[]",
          "name": "",
          "type": "tuple[]"
        }
      ],
      "stateMutability": "view",
      "type": "function",
      "constant": true
    }
  ],
  "bytecode": "0x608060405234801561001057600080fd5b5061085f806100206000396000f3fe608060405234801561001057600080fd5b506004361061004c5760003560e01c80633979aebe146100515780639b8d1f5c146100815780639f8b2cc11461009d578063e75649d6146100d1575b600080fd5b61006b60048036038101906100669190610512565b6100ef565b60405161007891906106a4565b60405180910390f35b61009b6004803603810190610096919061053b565b610351565b005b6100b760048036038101906100b29190610512565b6103f4565b6040516100c89594939291906106c6565b60405180910390f35b6100d961043a565b6040516100e691906106a4565b60405180910390f35b60606000805b60008054905081101561017757836000828154811061013d577f4e487b7100000000000000000000000000000000000000000000000000000000600052603260045260246000fd5b90600052602060002090600502016001015414156101645781806101609061079a565b9250505b808061016f9061079a565b9150506100f5565b5060008167ffffffffffffffff8111156101ba577f4e487b7100000000000000000000000000000000000000000000000000000000600052604160045260246000fd5b6040519080825280602002602001820160405280156101f357816020015b6101e06104cb565b8152602001906001900390816101d85790505b5090506000805b600080549050811015610345578560008281548110610242577f4e487b7100000000000000000000000000000000000000000000000000000000600052603260045260246000fd5b90600052602060002090600502016001015414156103325760008181548110610294577f4e487b7100000000000000000000000000000000000000000000000000000000600052603260045260246000fd5b90600052602060002090600502016040518060a001604052908160008201548152602001600182015481526020016002820154815260200160038201548152602001600482015481525050838381518110610318577f4e487b7100000000000000000000000000000000000000000000000000000000600052603260045260246000fd5b6020026020010181905250818061032e9061079a565b9250505b808061033d9061079a565b9150506101fa565b50819350505050919050565b60006001436103609190610752565b40905060006040518060a0016040528060008054905081526020018681526020018581526020018481526020018381525090806001815401808255809150506001900390600052602060002090600502016000909190919091506000820151816000015560208201518160010155604082015181600201556060820151816003015560808201518160040155505050505050565b6000818154811061040457600080fd5b90600052602060002090600502016000915090508060000154908060010154908060020154908060030154908060040154905085565b60606000805480602002602001604051908101604052809291908181526020016000905b828210156104c257838290600052602060002090600502016040518060a0016040529081600082015481526020016001820154815260200160028201548152602001600382015481526020016004820154815250508152602001906001019061045e565b50505050905090565b6040518060a0016040528060008152602001600081526020016000815260200160008152602001600080191681525090565b60008135905061050c81610812565b92915050565b60006020828403121561052457600080fd5b6000610532848285016104fd565b91505092915050565b60008060006060848603121561055057600080fd5b600061055e868287016104fd565b935050602061056f868287016104fd565b9250506040610580868287016104fd565b9150509250925092565b6000610596838361061e565b60a08301905092915050565b60006105ad82610729565b6105b78185610741565b93506105c283610719565b8060005b838110156105f35781516105da888261058a565b97506105e583610734565b9250506001810190506105c6565b5085935050505092915050565b61060981610786565b82525050565b61061881610786565b82525050565b60a0820160008201516106346000850182610686565b5060208201516106476020850182610686565b50604082015161065a6040850182610686565b50606082015161066d6060850182610686565b5060808201516106806080850182610600565b50505050565b61068f81610790565b82525050565b61069e81610790565b82525050565b600060208201905081810360008301526106be81846105a2565b905092915050565b600060a0820190506106db6000830188610695565b6106e86020830187610695565b6106f56040830186610695565b6107026060830185610695565b61070f608083018461060f565b9695505050505050565b6000819050602082019050919050565b600081519050919050565b6000602082019050919050565b600082825260208201905092915050565b600061075d82610790565b915061076883610790565b92508282101561077b5761077a6107e3565b5b828203905092915050565b6000819050919050565b6000819050919050565b60006107a582610790565b91507fffffffffffffffffffffffffffffffffffffffffffffffffffffffffffffffff8214156107d8576107d76107e3565b5b600182019050919050565b7f4e487b7100000000000000000000000000000000000000000000000000000000600052601160045260246000fd5b61081b81610790565b811461082657600080fd5b5056fea264697066735822122021981cafb1c56438aa8d009a1bc5d1039dfeaa4685a3845ce4faaf34196aba5264736f6c63430008000033",
  "immutableReferences": {},
  "source": "// SPDX-License-Identifier: MIT\r\npragma solidity ^0.8.0;\r\n\r\ncontract CreditScoreContract {\r\n    struct CreditScore {\r\n        uint id;\r\n        uint borrowerId;\r\n        uint score;\r\n        uint scoreDate;\r\n        bytes32 blockHash;\r\n    }\r\n\r\n    CreditScore[] public creditScores;\r\n\r\n    function createCreditScore(uint _borrowerId, uint _score, uint _scoreDate) public {\r\n        bytes32 hashOfRecentBlock = blockhash(block.number - 1);\r\n        creditScores.push(CreditScore(creditScores.length, _borrowerId, _score, _scoreDate, hashOfRecentBlock));\r\n    }\r\n\r\n    function getAllCreditScores() public view returns (CreditScore[] memory) {\r\n        return creditScores;\r\n    }\r\n\r\n    function getCreditScoresForBorrowerId(uint _borrowerId) public view returns (CreditScore[] memory) {\r\n        uint scoreCount = 0;\r\n        for (uint i = 0; i < creditScores.length; i++) {\r\n            if (creditScores[i].borrowerId == _borrowerId) {\r\n                scoreCount++;\r\n            }\r\n        }\r\n\r\n        CreditScore[] memory borrowerScores = new CreditScore[](scoreCount);\r\n        uint currentIndex = 0;\r\n        for (uint i = 0; i < creditScores.length; i++) {\r\n            if (creditScores[i].borrowerId == _borrowerId) {\r\n                borrowerScores[currentIndex] = creditScores[i];\r\n                currentIndex++;\r\n            }\r\n        }\r\n        return borrowerScores;\r\n    }\r\n}\r\n",
  "sourcePath": "C:\\Users\\User\\OneDrive - Asia Pacific University\\APU\\FYP + IR\\06 Final Year Project\\Sky-P2P\\backend\\contracts\\CreditScore.sol",
  "compiler": {
    "name": "solc",
    "version": "0.8.0+commit.c7dfd78e.Emscripten.clang"
  },
  "schemaVersion": "3.4.16",
  "updatedAt": "2023-12-25T09:55:17.386Z",
  "networkType": "ethereum",
  "devdoc": {
    "kind": "dev",
    "methods": {},
    "version": 1
  },
  "userdoc": {
    "kind": "user",
    "methods": {},
    "version": 1
  }
}