{
  "contractName": "PaymentContract",
  "abi": [
    {
      "inputs": [
        {
          "internalType": "uint256",
          "name": "",
          "type": "uint256"
        }
      ],
      "name": "payments",
      "outputs": [
        {
          "internalType": "uint256",
          "name": "id",
          "type": "uint256"
        },
        {
          "internalType": "uint256",
          "name": "contractBlockId",
          "type": "uint256"
        },
        {
          "internalType": "uint256",
          "name": "borrowerId",
          "type": "uint256"
        },
        {
          "internalType": "uint256",
          "name": "paymentAmount",
          "type": "uint256"
        },
        {
          "internalType": "uint256",
          "name": "paymentDate",
          "type": "uint256"
        },
        {
          "internalType": "bytes32",
          "name": "blockHash",
          "type": "bytes32"
        }
      ],
      "stateMutability": "view",
      "type": "function",
      "constant": true
    },
    {
      "inputs": [
        {
          "internalType": "uint256",
          "name": "_contractBlockId",
          "type": "uint256"
        },
        {
          "internalType": "uint256",
          "name": "_borrowerId",
          "type": "uint256"
        },
        {
          "internalType": "uint256",
          "name": "_paymentAmount",
          "type": "uint256"
        },
        {
          "internalType": "uint256",
          "name": "_paymentDate",
          "type": "uint256"
        }
      ],
      "name": "createPayment",
      "outputs": [],
      "stateMutability": "nonpayable",
      "type": "function"
    },
    {
      "inputs": [],
      "name": "getAllPayments",
      "outputs": [
        {
          "components": [
            {
              "internalType": "uint256",
              "name": "id",
              "type": "uint256"
            },
            {
              "internalType": "uint256",
              "name": "contractBlockId",
              "type": "uint256"
            },
            {
              "internalType": "uint256",
              "name": "borrowerId",
              "type": "uint256"
            },
            {
              "internalType": "uint256",
              "name": "paymentAmount",
              "type": "uint256"
            },
            {
              "internalType": "uint256",
              "name": "paymentDate",
              "type": "uint256"
            },
            {
              "internalType": "bytes32",
              "name": "blockHash",
              "type": "bytes32"
            }
          ],
          "internalType": "struct PaymentContract.Payment[]",
          "name": "",
          "type": "tuple[]"
        }
      ],
      "stateMutability": "view",
      "type": "function",
      "constant": true
    },
    {
      "inputs": [
        {
          "internalType": "uint256",
          "name": "_borrowerId",
          "type": "uint256"
        }
      ],
      "name": "getPaymentsForBorrowerId",
      "outputs": [
        {
          "components": [
            {
              "internalType": "uint256",
              "name": "id",
              "type": "uint256"
            },
            {
              "internalType": "uint256",
              "name": "contractBlockId",
              "type": "uint256"
            },
            {
              "internalType": "uint256",
              "name": "borrowerId",
              "type": "uint256"
            },
            {
              "internalType": "uint256",
              "name": "paymentAmount",
              "type": "uint256"
            },
            {
              "internalType": "uint256",
              "name": "paymentDate",
              "type": "uint256"
            },
            {
              "internalType": "bytes32",
              "name": "blockHash",
              "type": "bytes32"
            }
          ],
          "internalType": "struct PaymentContract.Payment[]",
          "name": "",
          "type": "tuple[]"
        }
      ],
      "stateMutability": "view",
      "type": "function",
      "constant": true
    }
  ],
  "bytecode": "0x608060405234801561001057600080fd5b506108c7806100206000396000f3fe608060405234801561001057600080fd5b506004361061004c5760003560e01c806387d817891461005157806399ab866a14610086578063bf60577c146100a2578063f8defa3c146100d2575b600080fd5b61006b60048036038101906100669190610545565b6100f0565b60405161007d96959493929190610720565b60405180910390f35b6100a0600480360381019061009b919061056e565b61013c565b005b6100bc60048036038101906100b79190610545565b6101f0565b6040516100c991906106fe565b60405180910390f35b6100da61045c565b6040516100e791906106fe565b60405180910390f35b6000818154811061010057600080fd5b90600052602060002090600602016000915090508060000154908060010154908060020154908060030154908060040154908060050154905086565b600060014361014b91906107ba565b40905060006040518060c001604052806000805490508152602001878152602001868152602001858152602001848152602001838152509080600181540180825580915050600190039060005260206000209060060201600090919091909150600082015181600001556020820151816001015560408201518160020155606082015181600301556080820151816004015560a0820151816005015550505050505050565b60606000805b60008054905081101561027857836000828154811061023e577f4e487b7100000000000000000000000000000000000000000000000000000000600052603260045260246000fd5b906000526020600020906006020160020154141561026557818061026190610802565b9250505b808061027090610802565b9150506101f6565b5060008167ffffffffffffffff8111156102bb577f4e487b7100000000000000000000000000000000000000000000000000000000600052604160045260246000fd5b6040519080825280602002602001820160405280156102f457816020015b6102e16104f7565b8152602001906001900390816102d95790505b5090506000805b600080549050811015610450578560008281548110610343577f4e487b7100000000000000000000000000000000000000000000000000000000600052603260045260246000fd5b906000526020600020906006020160020154141561043d5760008181548110610395577f4e487b7100000000000000000000000000000000000000000000000000000000600052603260045260246000fd5b90600052602060002090600602016040518060c00160405290816000820154815260200160018201548152602001600282015481526020016003820154815260200160048201548152602001600582015481525050838381518110610423577f4e487b7100000000000000000000000000000000000000000000000000000000600052603260045260246000fd5b6020026020010181905250818061043990610802565b9250505b808061044890610802565b9150506102fb565b50819350505050919050565b60606000805480602002602001604051908101604052809291908181526020016000905b828210156104ee57838290600052602060002090600602016040518060c0016040529081600082015481526020016001820154815260200160028201548152602001600382015481526020016004820154815260200160058201548152505081526020019060010190610480565b50505050905090565b6040518060c001604052806000815260200160008152602001600081526020016000815260200160008152602001600080191681525090565b60008135905061053f8161087a565b92915050565b60006020828403121561055757600080fd5b600061056584828501610530565b91505092915050565b6000806000806080858703121561058457600080fd5b600061059287828801610530565b94505060206105a387828801610530565b93505060406105b487828801610530565b92505060606105c587828801610530565b91505092959194509250565b60006105dd8383610665565b60c08301905092915050565b60006105f482610791565b6105fe81856107a9565b935061060983610781565b8060005b8381101561063a57815161062188826105d1565b975061062c8361079c565b92505060018101905061060d565b5085935050505092915050565b610650816107ee565b82525050565b61065f816107ee565b82525050565b60c08201600082015161067b60008501826106e0565b50602082015161068e60208501826106e0565b5060408201516106a160408501826106e0565b5060608201516106b460608501826106e0565b5060808201516106c760808501826106e0565b5060a08201516106da60a0850182610647565b50505050565b6106e9816107f8565b82525050565b6106f8816107f8565b82525050565b6000602082019050818103600083015261071881846105e9565b905092915050565b600060c08201905061073560008301896106ef565b61074260208301886106ef565b61074f60408301876106ef565b61075c60608301866106ef565b61076960808301856106ef565b61077660a0830184610656565b979650505050505050565b6000819050602082019050919050565b600081519050919050565b6000602082019050919050565b600082825260208201905092915050565b60006107c5826107f8565b91506107d0836107f8565b9250828210156107e3576107e261084b565b5b828203905092915050565b6000819050919050565b6000819050919050565b600061080d826107f8565b91507fffffffffffffffffffffffffffffffffffffffffffffffffffffffffffffffff8214156108405761083f61084b565b5b600182019050919050565b7f4e487b7100000000000000000000000000000000000000000000000000000000600052601160045260246000fd5b610883816107f8565b811461088e57600080fd5b5056fea264697066735822122095a498e6f3fd8b0ba7e34e0541bca1f8d1bb27c6982119e37106589bcd10e66764736f6c63430008000033",
  "immutableReferences": {},
  "source": "// SPDX-License-Identifier: MIT\r\npragma solidity ^0.8.0;\r\n\r\ncontract PaymentContract {\r\n    struct Payment {\r\n        uint id;\r\n        uint contractBlockId;\r\n        uint borrowerId;\r\n        uint paymentAmount;\r\n        uint paymentDate;\r\n        bytes32 blockHash;\r\n    }\r\n\r\n    Payment[] public payments;\r\n\r\n    function createPayment(uint _contractBlockId, uint _borrowerId, uint _paymentAmount, uint _paymentDate) public {\r\n        bytes32 hashOfRecentBlock = blockhash(block.number - 1);\r\n        payments.push(Payment(payments.length, _contractBlockId, _borrowerId, _paymentAmount, _paymentDate, hashOfRecentBlock));\r\n    }\r\n\r\n    function getAllPayments() public view returns (Payment[] memory) {\r\n        return payments;\r\n    }\r\n\r\n    function getPaymentsForBorrowerId(uint _borrowerId) public view returns (Payment[] memory) {\r\n        uint paymentCount = 0;\r\n        for (uint i = 0; i < payments.length; i++) {\r\n            if (payments[i].borrowerId == _borrowerId) {\r\n                paymentCount++;\r\n            }\r\n        }\r\n\r\n        Payment[] memory borrowerPayments = new Payment[](paymentCount);\r\n        uint currentIndex = 0;\r\n        for (uint i = 0; i < payments.length; i++) {\r\n            if (payments[i].borrowerId == _borrowerId) {\r\n                borrowerPayments[currentIndex] = payments[i];\r\n                currentIndex++;\r\n            }\r\n        }\r\n        return borrowerPayments;\r\n    }\r\n}\r\n",
  "sourcePath": "C:\\Users\\User\\OneDrive - Asia Pacific University\\APU\\FYP + IR\\06 Final Year Project\\Sky-P2P\\backend\\contracts\\Payment.sol",
  "compiler": {
    "name": "solc",
    "version": "0.8.0+commit.c7dfd78e.Emscripten.clang"
  },
  "schemaVersion": "3.4.16",
  "updatedAt": "2023-12-25T09:55:17.314Z",
  "networkType": "ethereum",
  "devdoc": {
    "kind": "dev",
    "methods": {},
    "version": 1
  },
  "userdoc": {
    "kind": "user",
    "methods": {},
    "version": 1
  }
}