{
  "contractName": "PaymentContract",
  "abi": [
    {
      "inputs": [
        {
          "internalType": "uint256",
          "name": "",
          "type": "uint256"
        }
      ],
      "name": "payments",
      "outputs": [
        {
          "internalType": "uint256",
          "name": "id",
          "type": "uint256"
        },
        {
          "internalType": "uint256",
          "name": "contractBlockId",
          "type": "uint256"
        },
        {
          "internalType": "uint256",
          "name": "borrowerId",
          "type": "uint256"
        },
        {
          "internalType": "uint256",
          "name": "paymentAmount",
          "type": "uint256"
        },
        {
          "internalType": "uint256",
          "name": "paymentDate",
          "type": "uint256"
        }
      ],
      "stateMutability": "view",
      "type": "function"
    },
    {
      "inputs": [
        {
          "internalType": "uint256",
          "name": "_contractBlockId",
          "type": "uint256"
        },
        {
          "internalType": "uint256",
          "name": "_borrowerId",
          "type": "uint256"
        },
        {
          "internalType": "uint256",
          "name": "_paymentAmount",
          "type": "uint256"
        },
        {
          "internalType": "uint256",
          "name": "_paymentDate",
          "type": "uint256"
        }
      ],
      "name": "createPayment",
      "outputs": [],
      "stateMutability": "nonpayable",
      "type": "function"
    },
    {
      "inputs": [],
      "name": "getAllPayments",
      "outputs": [
        {
          "components": [
            {
              "internalType": "uint256",
              "name": "id",
              "type": "uint256"
            },
            {
              "internalType": "uint256",
              "name": "contractBlockId",
              "type": "uint256"
            },
            {
              "internalType": "uint256",
              "name": "borrowerId",
              "type": "uint256"
            },
            {
              "internalType": "uint256",
              "name": "paymentAmount",
              "type": "uint256"
            },
            {
              "internalType": "uint256",
              "name": "paymentDate",
              "type": "uint256"
            }
          ],
          "internalType": "struct PaymentContract.Payment[]",
          "name": "",
          "type": "tuple[]"
        }
      ],
      "stateMutability": "view",
      "type": "function"
    },
    {
      "inputs": [
        {
          "internalType": "uint256",
          "name": "_borrowerId",
          "type": "uint256"
        }
      ],
      "name": "getPaymentsForBorrowerId",
      "outputs": [
        {
          "components": [
            {
              "internalType": "uint256",
              "name": "id",
              "type": "uint256"
            },
            {
              "internalType": "uint256",
              "name": "contractBlockId",
              "type": "uint256"
            },
            {
              "internalType": "uint256",
              "name": "borrowerId",
              "type": "uint256"
            },
            {
              "internalType": "uint256",
              "name": "paymentAmount",
              "type": "uint256"
            },
            {
              "internalType": "uint256",
              "name": "paymentDate",
              "type": "uint256"
            }
          ],
          "internalType": "struct PaymentContract.Payment[]",
          "name": "",
          "type": "tuple[]"
        }
      ],
      "stateMutability": "view",
      "type": "function"
    }
  ],
  "bytecode": "0x608060405234801561001057600080fd5b50610802806100206000396000f3fe608060405234801561001057600080fd5b506004361061004c5760003560e01c806387d817891461005157806399ab866a14610085578063bf60577c146100a1578063f8defa3c146100d1575b600080fd5b61006b600480360381019061006691906104fd565b6100ef565b60405161007c9594939291906106a7565b60405180910390f35b61009f600480360381019061009a9190610526565b610135565b005b6100bb60048036038101906100b691906104fd565b6101c6565b6040516100c89190610685565b60405180910390f35b6100d9610428565b6040516100e69190610685565b60405180910390f35b600081815481106100ff57600080fd5b90600052602060002090600502016000915090508060000154908060010154908060020154908060030154908060040154905085565b60006040518060a0016040528060008054905081526020018681526020018581526020018481526020018381525090806001815401808255809150506001900390600052602060002090600502016000909190919091506000820151816000015560208201518160010155604082015181600201556060820151816003015560808201518160040155505050505050565b60606000805b60008054905081101561024e578360008281548110610214577f4e487b7100000000000000000000000000000000000000000000000000000000600052603260045260246000fd5b906000526020600020906005020160020154141561023b5781806102379061073d565b9250505b80806102469061073d565b9150506101cc565b5060008167ffffffffffffffff811115610291577f4e487b7100000000000000000000000000000000000000000000000000000000600052604160045260246000fd5b6040519080825280602002602001820160405280156102ca57816020015b6102b76104b9565b8152602001906001900390816102af5790505b5090506000805b60008054905081101561041c578560008281548110610319577f4e487b7100000000000000000000000000000000000000000000000000000000600052603260045260246000fd5b9060005260206000209060050201600201541415610409576000818154811061036b577f4e487b7100000000000000000000000000000000000000000000000000000000600052603260045260246000fd5b90600052602060002090600502016040518060a0016040529081600082015481526020016001820154815260200160028201548152602001600382015481526020016004820154815250508383815181106103ef577f4e487b7100000000000000000000000000000000000000000000000000000000600052603260045260246000fd5b602002602001018190525081806104059061073d565b9250505b80806104149061073d565b9150506102d1565b50819350505050919050565b60606000805480602002602001604051908101604052809291908181526020016000905b828210156104b057838290600052602060002090600502016040518060a0016040529081600082015481526020016001820154815260200160028201548152602001600382015481526020016004820154815250508152602001906001019061044c565b50505050905090565b6040518060a0016040528060008152602001600081526020016000815260200160008152602001600081525090565b6000813590506104f7816107b5565b92915050565b60006020828403121561050f57600080fd5b600061051d848285016104e8565b91505092915050565b6000806000806080858703121561053c57600080fd5b600061054a878288016104e8565b945050602061055b878288016104e8565b935050604061056c878288016104e8565b925050606061057d878288016104e8565b91505092959194509250565b600061059583836105ff565b60a08301905092915050565b60006105ac8261070a565b6105b68185610722565b93506105c1836106fa565b8060005b838110156105f25781516105d98882610589565b97506105e483610715565b9250506001810190506105c5565b5085935050505092915050565b60a0820160008201516106156000850182610667565b5060208201516106286020850182610667565b50604082015161063b6040850182610667565b50606082015161064e6060850182610667565b5060808201516106616080850182610667565b50505050565b61067081610733565b82525050565b61067f81610733565b82525050565b6000602082019050818103600083015261069f81846105a1565b905092915050565b600060a0820190506106bc6000830188610676565b6106c96020830187610676565b6106d66040830186610676565b6106e36060830185610676565b6106f06080830184610676565b9695505050505050565b6000819050602082019050919050565b600081519050919050565b6000602082019050919050565b600082825260208201905092915050565b6000819050919050565b600061074882610733565b91507fffffffffffffffffffffffffffffffffffffffffffffffffffffffffffffffff82141561077b5761077a610786565b5b600182019050919050565b7f4e487b7100000000000000000000000000000000000000000000000000000000600052601160045260246000fd5b6107be81610733565b81146107c957600080fd5b5056fea2646970667358221220489f63983593e05e17734971a2f97685871a6490099e48e326ccac92bce7ffbe64736f6c63430008000033",
  "immutableReferences": {},
  "source": "pragma solidity ^0.8.0;\r\n\r\ncontract PaymentContract {\r\n    struct Payment {\r\n        uint id;\r\n        uint contractBlockId;\r\n        uint borrowerId;\r\n        uint paymentAmount;\r\n        uint paymentDate;\r\n    }\r\n\r\n    Payment[] public payments;\r\n\r\n    function createPayment(uint _contractBlockId, uint _borrowerId, uint _paymentAmount, uint _paymentDate) public {\r\n        payments.push(Payment(payments.length, _contractBlockId, _borrowerId, _paymentAmount, _paymentDate));\r\n    }\r\n\r\n    function getAllPayments() public view returns (Payment[] memory) {\r\n        return payments;\r\n    }\r\n\r\n    function getPaymentsForBorrowerId(uint _borrowerId) public view returns (Payment[] memory) {\r\n        uint paymentCount = 0;\r\n        for (uint i = 0; i < payments.length; i++) {\r\n            if (payments[i].borrowerId == _borrowerId) {\r\n                paymentCount++;\r\n            }\r\n        }\r\n\r\n        Payment[] memory borrowerPayments = new Payment[](paymentCount);\r\n        uint currentIndex = 0;\r\n        for (uint i = 0; i < payments.length; i++) {\r\n            if (payments[i].borrowerId == _borrowerId) {\r\n                borrowerPayments[currentIndex] = payments[i];\r\n                currentIndex++;\r\n            }\r\n        }\r\n        return borrowerPayments;\r\n    }\r\n}\r\n",
  "sourcePath": "C:\\Users\\User\\OneDrive - Asia Pacific University\\APU\\FYP + IR\\06 Final Year Project\\Sky-P2P\\backend\\contracts\\Payment.sol",
  "compiler": {
    "name": "solc",
    "version": "0.8.0+commit.c7dfd78e.Emscripten.clang"
  },
  "schemaVersion": "3.4.16",
  "updatedAt": "2023-12-24T20:14:06.352Z",
  "devdoc": {
    "kind": "dev",
    "methods": {},
    "version": 1
  },
  "userdoc": {
    "kind": "user",
    "methods": {},
    "version": 1
  }
}