{
  "contractName": "TransactionContract",
  "abi": [
    {
      "inputs": [
        {
          "internalType": "uint256",
          "name": "",
          "type": "uint256"
        }
      ],
      "name": "transactions",
      "outputs": [
        {
          "internalType": "uint256",
          "name": "id",
          "type": "uint256"
        },
        {
          "internalType": "uint256",
          "name": "lenderId",
          "type": "uint256"
        },
        {
          "internalType": "uint256",
          "name": "borrowerId",
          "type": "uint256"
        },
        {
          "internalType": "uint256",
          "name": "amount",
          "type": "uint256"
        },
        {
          "internalType": "uint256",
          "name": "transactionDate",
          "type": "uint256"
        }
      ],
      "stateMutability": "view",
      "type": "function"
    },
    {
      "inputs": [
        {
          "internalType": "uint256",
          "name": "_lenderId",
          "type": "uint256"
        },
        {
          "internalType": "uint256",
          "name": "_borrowerId",
          "type": "uint256"
        },
        {
          "internalType": "uint256",
          "name": "_amount",
          "type": "uint256"
        },
        {
          "internalType": "uint256",
          "name": "_transactionDate",
          "type": "uint256"
        }
      ],
      "name": "createTransaction",
      "outputs": [],
      "stateMutability": "nonpayable",
      "type": "function"
    },
    {
      "inputs": [],
      "name": "getAllTransactions",
      "outputs": [
        {
          "components": [
            {
              "internalType": "uint256",
              "name": "id",
              "type": "uint256"
            },
            {
              "internalType": "uint256",
              "name": "lenderId",
              "type": "uint256"
            },
            {
              "internalType": "uint256",
              "name": "borrowerId",
              "type": "uint256"
            },
            {
              "internalType": "uint256",
              "name": "amount",
              "type": "uint256"
            },
            {
              "internalType": "uint256",
              "name": "transactionDate",
              "type": "uint256"
            }
          ],
          "internalType": "struct TransactionContract.Transaction[]",
          "name": "",
          "type": "tuple[]"
        }
      ],
      "stateMutability": "view",
      "type": "function"
    },
    {
      "inputs": [
        {
          "internalType": "uint256",
          "name": "_userId",
          "type": "uint256"
        }
      ],
      "name": "getTransactionsForUser",
      "outputs": [
        {
          "components": [
            {
              "internalType": "uint256",
              "name": "id",
              "type": "uint256"
            },
            {
              "internalType": "uint256",
              "name": "lenderId",
              "type": "uint256"
            },
            {
              "internalType": "uint256",
              "name": "borrowerId",
              "type": "uint256"
            },
            {
              "internalType": "uint256",
              "name": "amount",
              "type": "uint256"
            },
            {
              "internalType": "uint256",
              "name": "transactionDate",
              "type": "uint256"
            }
          ],
          "internalType": "struct TransactionContract.Transaction[]",
          "name": "",
          "type": "tuple[]"
        }
      ],
      "stateMutability": "view",
      "type": "function"
    }
  ],
  "bytecode": "0x608060405234801561001057600080fd5b506108ac806100206000396000f3fe608060405234801561001057600080fd5b506004361061004c5760003560e01c806327506f53146100515780632ed24da81461006f5780639ace38c21461009f578063c28db733146100d3575b600080fd5b6100596100ef565b604051610066919061072f565b60405180910390f35b610089600480360381019061008491906105a7565b610180565b604051610096919061072f565b60405180910390f35b6100b960048036038101906100b491906105a7565b61048c565b6040516100ca959493929190610751565b60405180910390f35b6100ed60048036038101906100e891906105d0565b6104d2565b005b60606000805480602002602001604051908101604052809291908181526020016000905b8282101561017757838290600052602060002090600502016040518060a00160405290816000820154815260200160018201548152602001600282015481526020016003820154815260200160048201548152505081526020019060010190610113565b50505050905090565b60606000805b60008054905081101561025d5783600082815481106101ce577f4e487b7100000000000000000000000000000000000000000000000000000000600052603260045260246000fd5b906000526020600020906005020160010154148061023657508360008281548110610222577f4e487b7100000000000000000000000000000000000000000000000000000000600052603260045260246000fd5b906000526020600020906005020160020154145b1561024a578180610246906107e7565b9250505b8080610255906107e7565b915050610186565b5060008167ffffffffffffffff8111156102a0577f4e487b7100000000000000000000000000000000000000000000000000000000600052604160045260246000fd5b6040519080825280602002602001820160405280156102d957816020015b6102c6610563565b8152602001906001900390816102be5790505b5090506000805b600080549050811015610480578560008281548110610328577f4e487b7100000000000000000000000000000000000000000000000000000000600052603260045260246000fd5b90600052602060002090600502016001015414806103905750856000828154811061037c577f4e487b7100000000000000000000000000000000000000000000000000000000600052603260045260246000fd5b906000526020600020906005020160020154145b1561046d57600081815481106103cf577f4e487b7100000000000000000000000000000000000000000000000000000000600052603260045260246000fd5b90600052602060002090600502016040518060a001604052908160008201548152602001600182015481526020016002820154815260200160038201548152602001600482015481525050838381518110610453577f4e487b7100000000000000000000000000000000000000000000000000000000600052603260045260246000fd5b60200260200101819052508180610469906107e7565b9250505b8080610478906107e7565b9150506102e0565b50819350505050919050565b6000818154811061049c57600080fd5b90600052602060002090600502016000915090508060000154908060010154908060020154908060030154908060040154905085565b60006040518060a0016040528060008054905081526020018681526020018581526020018481526020018381525090806001815401808255809150506001900390600052602060002090600502016000909190919091506000820151816000015560208201518160010155604082015181600201556060820151816003015560808201518160040155505050505050565b6040518060a0016040528060008152602001600081526020016000815260200160008152602001600081525090565b6000813590506105a18161085f565b92915050565b6000602082840312156105b957600080fd5b60006105c784828501610592565b91505092915050565b600080600080608085870312156105e657600080fd5b60006105f487828801610592565b945050602061060587828801610592565b935050604061061687828801610592565b925050606061062787828801610592565b91505092959194509250565b600061063f83836106a9565b60a08301905092915050565b6000610656826107b4565b61066081856107cc565b935061066b836107a4565b8060005b8381101561069c5781516106838882610633565b975061068e836107bf565b92505060018101905061066f565b5085935050505092915050565b60a0820160008201516106bf6000850182610711565b5060208201516106d26020850182610711565b5060408201516106e56040850182610711565b5060608201516106f86060850182610711565b50608082015161070b6080850182610711565b50505050565b61071a816107dd565b82525050565b610729816107dd565b82525050565b60006020820190508181036000830152610749818461064b565b905092915050565b600060a0820190506107666000830188610720565b6107736020830187610720565b6107806040830186610720565b61078d6060830185610720565b61079a6080830184610720565b9695505050505050565b6000819050602082019050919050565b600081519050919050565b6000602082019050919050565b600082825260208201905092915050565b6000819050919050565b60006107f2826107dd565b91507fffffffffffffffffffffffffffffffffffffffffffffffffffffffffffffffff82141561082557610824610830565b5b600182019050919050565b7f4e487b7100000000000000000000000000000000000000000000000000000000600052601160045260246000fd5b610868816107dd565b811461087357600080fd5b5056fea2646970667358221220cb2746c94da6db080f8e090d169a1dfda5d260072d3032f53e17b567c28cd1cb64736f6c63430008000033",
  "immutableReferences": {},
  "source": "pragma solidity ^0.8.0;\r\n\r\ncontract TransactionContract {\r\n    struct Transaction {\r\n        uint id;\r\n        uint lenderId;\r\n        uint borrowerId;\r\n        uint amount;\r\n        uint transactionDate;\r\n    }\r\n\r\n    Transaction[] public transactions;\r\n\r\n    function createTransaction(uint _lenderId, uint _borrowerId, uint _amount, uint _transactionDate) public {\r\n        transactions.push(Transaction(transactions.length, _lenderId, _borrowerId, _amount, _transactionDate));\r\n    }\r\n\r\n    function getAllTransactions() public view returns (Transaction[] memory) {\r\n        return transactions;\r\n    }\r\n\r\n    function getTransactionsForUser(uint _userId) public view returns (Transaction[] memory) {\r\n        uint transactionCount = 0;\r\n        for (uint i = 0; i < transactions.length; i++) {\r\n            if (transactions[i].lenderId == _userId || transactions[i].borrowerId == _userId) {\r\n                transactionCount++;\r\n            }\r\n        }\r\n\r\n        Transaction[] memory userTransactions = new Transaction[](transactionCount);\r\n        uint currentIndex = 0;\r\n        for (uint i = 0; i < transactions.length; i++) {\r\n            if (transactions[i].lenderId == _userId || transactions[i].borrowerId == _userId) {\r\n                userTransactions[currentIndex] = transactions[i];\r\n                currentIndex++;\r\n            }\r\n        }\r\n        return userTransactions;\r\n    }\r\n}\r\n",
  "sourcePath": "C:\\Users\\User\\OneDrive - Asia Pacific University\\APU\\FYP + IR\\06 Final Year Project\\Sky-P2P\\backend\\contracts\\Transaction.sol",
  "compiler": {
    "name": "solc",
    "version": "0.8.0+commit.c7dfd78e.Emscripten.clang"
  },
  "schemaVersion": "3.4.16",
  "updatedAt": "2023-12-24T20:14:06.355Z",
  "devdoc": {
    "kind": "dev",
    "methods": {},
    "version": 1
  },
  "userdoc": {
    "kind": "user",
    "methods": {},
    "version": 1
  }
}