{
  "contractName": "TransactionContract",
  "abi": [
    {
      "inputs": [
        {
          "internalType": "uint256",
          "name": "",
          "type": "uint256"
        }
      ],
      "name": "transactions",
      "outputs": [
        {
          "internalType": "uint256",
          "name": "id",
          "type": "uint256"
        },
        {
          "internalType": "uint256",
          "name": "lenderId",
          "type": "uint256"
        },
        {
          "internalType": "uint256",
          "name": "borrowerId",
          "type": "uint256"
        },
        {
          "internalType": "uint256",
          "name": "amount",
          "type": "uint256"
        },
        {
          "internalType": "uint256",
          "name": "transactionDate",
          "type": "uint256"
        },
        {
          "internalType": "bytes32",
          "name": "blockHash",
          "type": "bytes32"
        },
        {
          "internalType": "uint256",
          "name": "blockNumber",
          "type": "uint256"
        }
      ],
      "stateMutability": "view",
      "type": "function",
      "constant": true
    },
    {
      "inputs": [
        {
          "internalType": "uint256",
          "name": "_lenderId",
          "type": "uint256"
        },
        {
          "internalType": "uint256",
          "name": "_borrowerId",
          "type": "uint256"
        },
        {
          "internalType": "uint256",
          "name": "_amount",
          "type": "uint256"
        },
        {
          "internalType": "uint256",
          "name": "_transactionDate",
          "type": "uint256"
        }
      ],
      "name": "createTransaction",
      "outputs": [],
      "stateMutability": "nonpayable",
      "type": "function"
    },
    {
      "inputs": [],
      "name": "getAllTransactions",
      "outputs": [
        {
          "components": [
            {
              "internalType": "uint256",
              "name": "id",
              "type": "uint256"
            },
            {
              "internalType": "uint256",
              "name": "lenderId",
              "type": "uint256"
            },
            {
              "internalType": "uint256",
              "name": "borrowerId",
              "type": "uint256"
            },
            {
              "internalType": "uint256",
              "name": "amount",
              "type": "uint256"
            },
            {
              "internalType": "uint256",
              "name": "transactionDate",
              "type": "uint256"
            },
            {
              "internalType": "bytes32",
              "name": "blockHash",
              "type": "bytes32"
            },
            {
              "internalType": "uint256",
              "name": "blockNumber",
              "type": "uint256"
            }
          ],
          "internalType": "struct TransactionContract.Transaction[]",
          "name": "",
          "type": "tuple[]"
        }
      ],
      "stateMutability": "view",
      "type": "function",
      "constant": true
    },
    {
      "inputs": [
        {
          "internalType": "uint256",
          "name": "_userId",
          "type": "uint256"
        }
      ],
      "name": "getTransactionsForUser",
      "outputs": [
        {
          "components": [
            {
              "internalType": "uint256",
              "name": "id",
              "type": "uint256"
            },
            {
              "internalType": "uint256",
              "name": "lenderId",
              "type": "uint256"
            },
            {
              "internalType": "uint256",
              "name": "borrowerId",
              "type": "uint256"
            },
            {
              "internalType": "uint256",
              "name": "amount",
              "type": "uint256"
            },
            {
              "internalType": "uint256",
              "name": "transactionDate",
              "type": "uint256"
            },
            {
              "internalType": "bytes32",
              "name": "blockHash",
              "type": "bytes32"
            },
            {
              "internalType": "uint256",
              "name": "blockNumber",
              "type": "uint256"
            }
          ],
          "internalType": "struct TransactionContract.Transaction[]",
          "name": "",
          "type": "tuple[]"
        }
      ],
      "stateMutability": "view",
      "type": "function",
      "constant": true
    }
  ],
  "bytecode": "0x608060405234801561001057600080fd5b506109ca806100206000396000f3fe608060405234801561001057600080fd5b506004361061004c5760003560e01c806327506f53146100515780632ed24da81461006f5780639ace38c21461009f578063c28db733146100d5575b600080fd5b6100596100f1565b60405161006691906107f3565b60405180910390f35b61008960048036038101906100849190610627565b610196565b60405161009691906107f3565b60405180910390f35b6100b960048036038101906100b49190610627565b6104b6565b6040516100cc9796959493929190610815565b60405180910390f35b6100ef60048036038101906100ea9190610650565b610508565b005b60606000805480602002602001604051908101604052809291908181526020016000905b8282101561018d57838290600052602060002090600702016040518060e001604052908160008201548152602001600182015481526020016002820154815260200160038201548152602001600482015481526020016005820154815260200160068201548152505081526020019060010190610115565b50505050905090565b60606000805b6000805490508110156102735783600082815481106101e4577f4e487b7100000000000000000000000000000000000000000000000000000000600052603260045260246000fd5b906000526020600020906007020160010154148061024c57508360008281548110610238577f4e487b7100000000000000000000000000000000000000000000000000000000600052603260045260246000fd5b906000526020600020906007020160020154145b1561026057818061025c90610905565b9250505b808061026b90610905565b91505061019c565b5060008167ffffffffffffffff8111156102b6577f4e487b7100000000000000000000000000000000000000000000000000000000600052604160045260246000fd5b6040519080825280602002602001820160405280156102ef57816020015b6102dc6105d2565b8152602001906001900390816102d45790505b5090506000805b6000805490508110156104aa57856000828154811061033e577f4e487b7100000000000000000000000000000000000000000000000000000000600052603260045260246000fd5b90600052602060002090600702016001015414806103a657508560008281548110610392577f4e487b7100000000000000000000000000000000000000000000000000000000600052603260045260246000fd5b906000526020600020906007020160020154145b1561049757600081815481106103e5577f4e487b7100000000000000000000000000000000000000000000000000000000600052603260045260246000fd5b90600052602060002090600702016040518060e001604052908160008201548152602001600182015481526020016002820154815260200160038201548152602001600482015481526020016005820154815260200160068201548152505083838151811061047d577f4e487b7100000000000000000000000000000000000000000000000000000000600052603260045260246000fd5b6020026020010181905250818061049390610905565b9250505b80806104a290610905565b9150506102f6565b50819350505050919050565b600081815481106104c657600080fd5b90600052602060002090600702016000915090508060000154908060010154908060020154908060030154908060040154908060050154908060060154905087565b600060014361051791906108bd565b409050600043905060006040518060e001604052806000805490508152602001888152602001878152602001868152602001858152602001848152602001838152509080600181540180825580915050600190039060005260206000209060070201600090919091909150600082015181600001556020820151816001015560408201518160020155606082015181600301556080820151816004015560a0820151816005015560c082015181600601555050505050505050565b6040518060e00160405280600081526020016000815260200160008152602001600081526020016000815260200160008019168152602001600081525090565b6000813590506106218161097d565b92915050565b60006020828403121561063957600080fd5b600061064784828501610612565b91505092915050565b6000806000806080858703121561066657600080fd5b600061067487828801610612565b945050602061068587828801610612565b935050604061069687828801610612565b92505060606106a787828801610612565b91505092959194509250565b60006106bf8383610747565b60e08301905092915050565b60006106d682610894565b6106e081856108ac565b93506106eb83610884565b8060005b8381101561071c57815161070388826106b3565b975061070e8361089f565b9250506001810190506106ef565b5085935050505092915050565b610732816108f1565b82525050565b610741816108f1565b82525050565b60e08201600082015161075d60008501826107d5565b50602082015161077060208501826107d5565b50604082015161078360408501826107d5565b50606082015161079660608501826107d5565b5060808201516107a960808501826107d5565b5060a08201516107bc60a0850182610729565b5060c08201516107cf60c08501826107d5565b50505050565b6107de816108fb565b82525050565b6107ed816108fb565b82525050565b6000602082019050818103600083015261080d81846106cb565b905092915050565b600060e08201905061082a600083018a6107e4565b61083760208301896107e4565b61084460408301886107e4565b61085160608301876107e4565b61085e60808301866107e4565b61086b60a0830185610738565b61087860c08301846107e4565b98975050505050505050565b6000819050602082019050919050565b600081519050919050565b6000602082019050919050565b600082825260208201905092915050565b60006108c8826108fb565b91506108d3836108fb565b9250828210156108e6576108e561094e565b5b828203905092915050565b6000819050919050565b6000819050919050565b6000610910826108fb565b91507fffffffffffffffffffffffffffffffffffffffffffffffffffffffffffffffff8214156109435761094261094e565b5b600182019050919050565b7f4e487b7100000000000000000000000000000000000000000000000000000000600052601160045260246000fd5b610986816108fb565b811461099157600080fd5b5056fea2646970667358221220d5304a6a0a022b29218e2f4a297a5e3b214d9dff1c422b982770b4ec03575d3764736f6c63430008000033",
  "immutableReferences": {},
  "source": "// SPDX-License-Identifier: MIT\r\npragma solidity ^0.8.0;\r\n\r\ncontract TransactionContract {\r\n    struct Transaction {\r\n        uint id;\r\n        uint lenderId;\r\n        uint borrowerId;\r\n        uint amount;\r\n        uint transactionDate;\r\n        bytes32 blockHash;\r\n        uint256 blockNumber;\r\n    }\r\n\r\n    Transaction[] public transactions;\r\n\r\n    function createTransaction(uint _lenderId, uint _borrowerId, uint _amount, uint _transactionDate) public {\r\n        bytes32 hashOfPreviousBlock = blockhash(block.number - 1);\r\n        uint256 currentBlockNumber = block.number;\r\n        transactions.push(Transaction(transactions.length, _lenderId, _borrowerId, _amount, _transactionDate, hashOfPreviousBlock, currentBlockNumber));\r\n    }\r\n\r\n    function getAllTransactions() public view returns (Transaction[] memory) {\r\n        return transactions;\r\n    }\r\n\r\n    function getTransactionsForUser(uint _userId) public view returns (Transaction[] memory) {\r\n        uint transactionCount = 0;\r\n        for (uint i = 0; i < transactions.length; i++) {\r\n            if (transactions[i].lenderId == _userId || transactions[i].borrowerId == _userId) {\r\n                transactionCount++;\r\n            }\r\n        }\r\n\r\n        Transaction[] memory userTransactions = new Transaction[](transactionCount);\r\n        uint currentIndex = 0;\r\n        for (uint i = 0; i < transactions.length; i++) {\r\n            if (transactions[i].lenderId == _userId || transactions[i].borrowerId == _userId) {\r\n                userTransactions[currentIndex] = transactions[i];\r\n                currentIndex++;\r\n            }\r\n        }\r\n        return userTransactions;\r\n    }\r\n}\r\n",
  "sourcePath": "C:\\Users\\User\\OneDrive - Asia Pacific University\\APU\\FYP + IR\\06 Final Year Project\\Sky-P2P\\backend\\contracts\\Transaction.sol",
  "compiler": {
    "name": "solc",
    "version": "0.8.0+commit.c7dfd78e.Emscripten.clang"
  },
  "schemaVersion": "3.4.16",
  "updatedAt": "2024-01-03T08:24:50.568Z",
  "networkType": "ethereum",
  "devdoc": {
    "kind": "dev",
    "methods": {},
    "version": 1
  },
  "userdoc": {
    "kind": "user",
    "methods": {},
    "version": 1
  }
}